{
    "contractName": "foranimals",
    "abi": [
        {
            "inputs": [
                {
                    "internalType": "string",
                    "name": "_name",
                    "type": "string"
                },
                {
                    "internalType": "string",
                    "name": "_symbol",
                    "type": "string"
                },
                {
                    "internalType": "string",
                    "name": "_initBaseURI",
                    "type": "string"
                }
            ],
            "stateMutability": "nonpayable",
            "type": "constructor"
        },
        {
            "anonymous": false,
            "inputs": [
                {
                    "indexed": true,
                    "internalType": "address",
                    "name": "owner",
                    "type": "address"
                },
                {
                    "indexed": true,
                    "internalType": "address",
                    "name": "approved",
                    "type": "address"
                },
                {
                    "indexed": true,
                    "internalType": "uint256",
                    "name": "tokenId",
                    "type": "uint256"
                }
            ],
            "name": "Approval",
            "type": "event"
        },
        {
            "anonymous": false,
            "inputs": [
                {
                    "indexed": true,
                    "internalType": "address",
                    "name": "owner",
                    "type": "address"
                },
                {
                    "indexed": true,
                    "internalType": "address",
                    "name": "operator",
                    "type": "address"
                },
                {
                    "indexed": false,
                    "internalType": "bool",
                    "name": "approved",
                    "type": "bool"
                }
            ],
            "name": "ApprovalForAll",
            "type": "event"
        },
        {
            "anonymous": false,
            "inputs": [
                {
                    "indexed": true,
                    "internalType": "address",
                    "name": "previousOwner",
                    "type": "address"
                },
                {
                    "indexed": true,
                    "internalType": "address",
                    "name": "newOwner",
                    "type": "address"
                }
            ],
            "name": "OwnershipTransferred",
            "type": "event"
        },
        {
            "anonymous": false,
            "inputs": [
                {
                    "indexed": true,
                    "internalType": "address",
                    "name": "from",
                    "type": "address"
                },
                {
                    "indexed": true,
                    "internalType": "address",
                    "name": "to",
                    "type": "address"
                },
                {
                    "indexed": true,
                    "internalType": "uint256",
                    "name": "tokenId",
                    "type": "uint256"
                }
            ],
            "name": "Transfer",
            "type": "event"
        },
        {
            "inputs": [
                {
                    "internalType": "address",
                    "name": "to",
                    "type": "address"
                },
                {
                    "internalType": "uint256",
                    "name": "tokenId",
                    "type": "uint256"
                }
            ],
            "name": "approve",
            "outputs": [],
            "stateMutability": "nonpayable",
            "type": "function"
        },
        {
            "inputs": [
                {
                    "internalType": "address",
                    "name": "owner",
                    "type": "address"
                }
            ],
            "name": "balanceOf",
            "outputs": [
                {
                    "internalType": "uint256",
                    "name": "",
                    "type": "uint256"
                }
            ],
            "stateMutability": "view",
            "type": "function"
        },
        {
            "inputs": [],
            "name": "baseExtension",
            "outputs": [
                {
                    "internalType": "string",
                    "name": "",
                    "type": "string"
                }
            ],
            "stateMutability": "view",
            "type": "function"
        },
        {
            "inputs": [],
            "name": "baseURI",
            "outputs": [
                {
                    "internalType": "string",
                    "name": "",
                    "type": "string"
                }
            ],
            "stateMutability": "view",
            "type": "function"
        },
        {
            "inputs": [],
            "name": "cost",
            "outputs": [
                {
                    "internalType": "uint256",
                    "name": "",
                    "type": "uint256"
                }
            ],
            "stateMutability": "view",
            "type": "function"
        },
        {
            "inputs": [
                {
                    "internalType": "uint256",
                    "name": "tokenId",
                    "type": "uint256"
                }
            ],
            "name": "getApproved",
            "outputs": [
                {
                    "internalType": "address",
                    "name": "",
                    "type": "address"
                }
            ],
            "stateMutability": "view",
            "type": "function"
        },
        {
            "inputs": [
                {
                    "internalType": "address",
                    "name": "owner",
                    "type": "address"
                },
                {
                    "internalType": "address",
                    "name": "operator",
                    "type": "address"
                }
            ],
            "name": "isApprovedForAll",
            "outputs": [
                {
                    "internalType": "bool",
                    "name": "",
                    "type": "bool"
                }
            ],
            "stateMutability": "view",
            "type": "function"
        },
        {
            "inputs": [
                {
                    "internalType": "address",
                    "name": "_user",
                    "type": "address"
                }
            ],
            "name": "isWhitelisted",
            "outputs": [
                {
                    "internalType": "bool",
                    "name": "",
                    "type": "bool"
                }
            ],
            "stateMutability": "view",
            "type": "function"
        },
        {
            "inputs": [],
            "name": "maxMintAmount",
            "outputs": [
                {
                    "internalType": "uint256",
                    "name": "",
                    "type": "uint256"
                }
            ],
            "stateMutability": "view",
            "type": "function"
        },
        {
            "inputs": [],
            "name": "maxSupply",
            "outputs": [
                {
                    "internalType": "uint256",
                    "name": "",
                    "type": "uint256"
                }
            ],
            "stateMutability": "view",
            "type": "function"
        },
        {
            "inputs": [
                {
                    "internalType": "address",
                    "name": "_to",
                    "type": "address"
                },
                {
                    "internalType": "uint256",
                    "name": "_mintAmount",
                    "type": "uint256"
                }
            ],
            "name": "mint",
            "outputs": [],
            "stateMutability": "payable",
            "type": "function"
        },
        {
            "inputs": [],
            "name": "name",
            "outputs": [
                {
                    "internalType": "string",
                    "name": "",
                    "type": "string"
                }
            ],
            "stateMutability": "view",
            "type": "function"
        },
        {
            "inputs": [],
            "name": "notRevealedUri",
            "outputs": [
                {
                    "internalType": "string",
                    "name": "",
                    "type": "string"
                }
            ],
            "stateMutability": "view",
            "type": "function"
        },
        {
            "inputs": [],
            "name": "onlyWhitelisted",
            "outputs": [
                {
                    "internalType": "bool",
                    "name": "",
                    "type": "bool"
                }
            ],
            "stateMutability": "view",
            "type": "function"
        },
        {
            "inputs": [],
            "name": "owner",
            "outputs": [
                {
                    "internalType": "address",
                    "name": "",
                    "type": "address"
                }
            ],
            "stateMutability": "view",
            "type": "function"
        },
        {
            "inputs": [
                {
                    "internalType": "uint256",
                    "name": "tokenId",
                    "type": "uint256"
                }
            ],
            "name": "ownerOf",
            "outputs": [
                {
                    "internalType": "address",
                    "name": "",
                    "type": "address"
                }
            ],
            "stateMutability": "view",
            "type": "function"
        },
        {
            "inputs": [
                {
                    "internalType": "bool",
                    "name": "_state",
                    "type": "bool"
                }
            ],
            "name": "pause",
            "outputs": [],
            "stateMutability": "nonpayable",
            "type": "function"
        },
        {
            "inputs": [],
            "name": "paused",
            "outputs": [
                {
                    "internalType": "bool",
                    "name": "",
                    "type": "bool"
                }
            ],
            "stateMutability": "view",
            "type": "function"
        },
        {
            "inputs": [],
            "name": "percentage",
            "outputs": [
                {
                    "internalType": "uint256",
                    "name": "",
                    "type": "uint256"
                }
            ],
            "stateMutability": "view",
            "type": "function"
        },
        {
            "inputs": [
                {
                    "internalType": "address",
                    "name": "_user",
                    "type": "address"
                }
            ],
            "name": "removeWhitelistUser",
            "outputs": [],
            "stateMutability": "nonpayable",
            "type": "function"
        },
        {
            "inputs": [],
            "name": "renounceOwnership",
            "outputs": [],
            "stateMutability": "nonpayable",
            "type": "function"
        },
        {
            "inputs": [],
            "name": "revealed",
            "outputs": [
                {
                    "internalType": "bool",
                    "name": "",
                    "type": "bool"
                }
            ],
            "stateMutability": "view",
            "type": "function"
        },
        {
            "inputs": [
                {
                    "internalType": "address",
                    "name": "from",
                    "type": "address"
                },
                {
                    "internalType": "address",
                    "name": "to",
                    "type": "address"
                },
                {
                    "internalType": "uint256",
                    "name": "tokenId",
                    "type": "uint256"
                }
            ],
            "name": "safeTransferFrom",
            "outputs": [],
            "stateMutability": "nonpayable",
            "type": "function"
        },
        {
            "inputs": [
                {
                    "internalType": "address",
                    "name": "from",
                    "type": "address"
                },
                {
                    "internalType": "address",
                    "name": "to",
                    "type": "address"
                },
                {
                    "internalType": "uint256",
                    "name": "tokenId",
                    "type": "uint256"
                },
                {
                    "internalType": "bytes",
                    "name": "_data",
                    "type": "bytes"
                }
            ],
            "name": "safeTransferFrom",
            "outputs": [],
            "stateMutability": "nonpayable",
            "type": "function"
        },
        {
            "inputs": [
                {
                    "internalType": "address",
                    "name": "operator",
                    "type": "address"
                },
                {
                    "internalType": "bool",
                    "name": "approved",
                    "type": "bool"
                }
            ],
            "name": "setApprovalForAll",
            "outputs": [],
            "stateMutability": "nonpayable",
            "type": "function"
        },
        {
            "inputs": [
                {
                    "internalType": "string",
                    "name": "_newBaseExtension",
                    "type": "string"
                }
            ],
            "name": "setBaseExtension",
            "outputs": [],
            "stateMutability": "nonpayable",
            "type": "function"
        },
        {
            "inputs": [
                {
                    "internalType": "string",
                    "name": "_newBaseURI",
                    "type": "string"
                }
            ],
            "name": "setBaseURI",
            "outputs": [],
            "stateMutability": "nonpayable",
            "type": "function"
        },
        {
            "inputs": [
                {
                    "internalType": "uint256",
                    "name": "_newCost",
                    "type": "uint256"
                }
            ],
            "name": "setCost",
            "outputs": [],
            "stateMutability": "nonpayable",
            "type": "function"
        },
        {
            "inputs": [
                {
                    "internalType": "uint256",
                    "name": "_newmaxMintAmount",
                    "type": "uint256"
                }
            ],
            "name": "setmaxMintAmount",
            "outputs": [],
            "stateMutability": "nonpayable",
            "type": "function"
        },
        {
            "inputs": [
                {
                    "internalType": "bytes4",
                    "name": "interfaceId",
                    "type": "bytes4"
                }
            ],
            "name": "supportsInterface",
            "outputs": [
                {
                    "internalType": "bool",
                    "name": "",
                    "type": "bool"
                }
            ],
            "stateMutability": "view",
            "type": "function"
        },
        {
            "inputs": [],
            "name": "symbol",
            "outputs": [
                {
                    "internalType": "string",
                    "name": "",
                    "type": "string"
                }
            ],
            "stateMutability": "view",
            "type": "function"
        },
        {
            "inputs": [
                {
                    "internalType": "uint256",
                    "name": "index",
                    "type": "uint256"
                }
            ],
            "name": "tokenByIndex",
            "outputs": [
                {
                    "internalType": "uint256",
                    "name": "",
                    "type": "uint256"
                }
            ],
            "stateMutability": "view",
            "type": "function"
        },
        {
            "inputs": [
                {
                    "internalType": "address",
                    "name": "owner",
                    "type": "address"
                },
                {
                    "internalType": "uint256",
                    "name": "index",
                    "type": "uint256"
                }
            ],
            "name": "tokenOfOwnerByIndex",
            "outputs": [
                {
                    "internalType": "uint256",
                    "name": "",
                    "type": "uint256"
                }
            ],
            "stateMutability": "view",
            "type": "function"
        },
        {
            "inputs": [
                {
                    "internalType": "uint256",
                    "name": "tokenId",
                    "type": "uint256"
                }
            ],
            "name": "tokenURI",
            "outputs": [
                {
                    "internalType": "string",
                    "name": "",
                    "type": "string"
                }
            ],
            "stateMutability": "view",
            "type": "function"
        },
        {
            "inputs": [],
            "name": "totalSupply",
            "outputs": [
                {
                    "internalType": "uint256",
                    "name": "",
                    "type": "uint256"
                }
            ],
            "stateMutability": "view",
            "type": "function"
        },
        {
            "inputs": [
                {
                    "internalType": "address",
                    "name": "from",
                    "type": "address"
                },
                {
                    "internalType": "address",
                    "name": "to",
                    "type": "address"
                },
                {
                    "internalType": "uint256",
                    "name": "tokenId",
                    "type": "uint256"
                }
            ],
            "name": "transferFrom",
            "outputs": [],
            "stateMutability": "nonpayable",
            "type": "function"
        },
        {
            "inputs": [
                {
                    "internalType": "address",
                    "name": "newOwner",
                    "type": "address"
                }
            ],
            "name": "transferOwnership",
            "outputs": [],
            "stateMutability": "nonpayable",
            "type": "function"
        },
        {
            "inputs": [
                {
                    "internalType": "address",
                    "name": "_owner",
                    "type": "address"
                }
            ],
            "name": "walletOfOwner",
            "outputs": [
                {
                    "internalType": "uint256[]",
                    "name": "",
                    "type": "uint256[]"
                }
            ],
            "stateMutability": "view",
            "type": "function"
        },
        {
            "inputs": [
                {
                    "internalType": "address",
                    "name": "_user",
                    "type": "address"
                }
            ],
            "name": "whitelistUser",
            "outputs": [],
            "stateMutability": "nonpayable",
            "type": "function"
        },
        {
            "inputs": [
                {
                    "internalType": "address",
                    "name": "",
                    "type": "address"
                }
            ],
            "name": "whitelisted",
            "outputs": [
                {
                    "internalType": "bool",
                    "name": "",
                    "type": "bool"
                }
            ],
            "stateMutability": "view",
            "type": "function"
        },
        {
            "inputs": [],
            "name": "withdraw",
            "outputs": [],
            "stateMutability": "payable",
            "type": "function"
        }
    ],
    "bytecode": "60c06040526005608081905264173539b7b760d91b60a09081526200002891600c919062000ac6565b5067016345785d8a0000600e55612710600f556078601055600a6011556012805462ffffff1916620100001790553480156200006357600080fd5b50604051620034a8380380620034a8833981016040819052620000869162000c42565b8251839083906200009f90600090602085019062000ac6565b508051620000b590600190602084019062000ac6565b505050620000d2620000cc620000f360201b60201c565b620000f7565b620000dd8162000149565b620000ea336074620001c2565b50505062000e50565b3390565b600a80546001600160a01b038381166001600160a01b0319831681179093556040519116919082907f8be0079c531659141344cd1fd0a4f28419497f9722a3daafe3b4186f6b6457e090600090a35050565b600a546001600160a01b03163314620001a95760405162461bcd60e51b815260206004820181905260248201527f4f776e61626c653a2063616c6c6572206973206e6f7420746865206f776e657260448201526064015b60405180910390fd5b8051620001be90600b90602084019062000ac6565b5050565b6000620001ce60085490565b60125490915060ff1615620002265760405162461bcd60e51b815260206004820152601660248201527f74686520636f6e747261637420697320706175736564000000000000000000006044820152606401620001a0565b60008211620002785760405162461bcd60e51b815260206004820152601b60248201527f6e65656420746f206d696e74206174206c656173742031204e465400000000006044820152606401620001a0565b601054821115620002d85760405162461bcd60e51b8152602060048201526024808201527f6d6178206d696e7420616d6f756e74207065722073657373696f6e20657863656044820152631959195960e21b6064820152608401620001a0565b600f54620002e7838362000ce9565b1115620003375760405162461bcd60e51b815260206004820152601660248201527f6d6178204e4654206c696d6974206578636565646564000000000000000000006044820152606401620001a0565b600a546001600160a01b031633146200041d5760125462010000900460ff16151560011415620003c7573360009081526013602052604090205460ff161515600114620003c75760405162461bcd60e51b815260206004820152601760248201527f75736572206973206e6f742077686974656c69737465640000000000000000006044820152606401620001a0565b81600e54620003d7919062000d04565b3410156200041d5760405162461bcd60e51b8152602060048201526012602482015271696e73756666696369656e742066756e647360701b6044820152606401620001a0565b60015b82811162000454576200043f8462000439838562000ce9565b6200045a565b806200044b8162000d26565b91505062000420565b50505050565b620001be8282604051806020016040528060008152506200047c60201b60201c565b620004888383620004f4565b6200049760008484846200064a565b620004ef5760405162461bcd60e51b815260206004820152603260248201526000805160206200348883398151915260448201527131b2b4bb32b91034b6b83632b6b2b73a32b960711b6064820152608401620001a0565b505050565b6001600160a01b0382166200054c5760405162461bcd60e51b815260206004820181905260248201527f4552433732313a206d696e7420746f20746865207a65726f20616464726573736044820152606401620001a0565b6000818152600260205260409020546001600160a01b031615620005b35760405162461bcd60e51b815260206004820152601c60248201527f4552433732313a20746f6b656e20616c7265616479206d696e746564000000006044820152606401620001a0565b620005c160008383620007a3565b6001600160a01b0382166000908152600360205260408120805460019290620005ec90849062000ce9565b909155505060008181526002602052604080822080546001600160a01b0319166001600160a01b03861690811790915590518392907fddf252ad1be2c89b69c2b068fc378daa952ba7f163c4a11628f55a4df523b3ef908290a45050565b60006200066b846001600160a01b03166200087f60201b620014fa1760201c565b156200079757604051630a85bd0160e11b81526001600160a01b0385169063150b7a0290620006a590339089908890889060040162000d44565b6020604051808303816000875af1925050508015620006e3575060408051601f3d908101601f19168201909252620006e09181019062000d9a565b60015b6200077c573d80801562000714576040519150601f19603f3d011682016040523d82523d6000602084013e62000719565b606091505b508051620007745760405162461bcd60e51b815260206004820152603260248201526000805160206200348883398151915260448201527131b2b4bb32b91034b6b83632b6b2b73a32b960711b6064820152608401620001a0565b805181602001fd5b6001600160e01b031916630a85bd0160e11b1490506200079b565b5060015b949350505050565b620007bb838383620004ef60201b62000a8f1760201c565b6001600160a01b03831662000819576200081381600880546000838152600960205260408120829055600182018355919091527ff3f7a9fe364faab93b216da50a3214154f22a0a2b415b23a84c8169e8b636ee30155565b6200083f565b816001600160a01b0316836001600160a01b0316146200083f576200083f838262000885565b6001600160a01b0382166200085957620004ef8162000932565b826001600160a01b0316826001600160a01b031614620004ef57620004ef8282620009ec565b3b151590565b600060016200089f8462000a3d60201b620011471760201c565b620008ab919062000dcd565b600083815260076020526040902054909150808214620008ff576001600160a01b03841660009081526006602090815260408083208584528252808320548484528184208190558352600790915290208190555b5060009182526007602090815260408084208490556001600160a01b039094168352600681528383209183525290812055565b600854600090620009469060019062000dcd565b6000838152600960205260408120546008805493945090928490811062000971576200097162000de7565b90600052602060002001549050806008838154811062000995576200099562000de7565b6000918252602080832090910192909255828152600990915260408082208490558582528120556008805480620009d057620009d062000dfd565b6001900381819060005260206000200160009055905550505050565b600062000a048362000a3d60201b620011471760201c565b6001600160a01b039093166000908152600660209081526040808320868452825280832085905593825260079052919091209190915550565b60006001600160a01b03821662000aaa5760405162461bcd60e51b815260206004820152602a60248201527f4552433732313a2062616c616e636520717565727920666f7220746865207a65604482015269726f206164647265737360b01b6064820152608401620001a0565b506001600160a01b031660009081526003602052604090205490565b82805462000ad49062000e13565b90600052602060002090601f01602090048101928262000af8576000855562000b43565b82601f1062000b1357805160ff191683800117855562000b43565b8280016001018555821562000b43579182015b8281111562000b4357825182559160200191906001019062000b26565b5062000b5192915062000b55565b5090565b5b8082111562000b51576000815560010162000b56565b634e487b7160e01b600052604160045260246000fd5b60005b8381101562000b9f57818101518382015260200162000b85565b83811115620004545750506000910152565b600082601f83011262000bc357600080fd5b81516001600160401b038082111562000be05762000be062000b6c565b604051601f8301601f19908116603f0116810190828211818310171562000c0b5762000c0b62000b6c565b8160405283815286602085880101111562000c2557600080fd5b62000c3884602083016020890162000b82565b9695505050505050565b60008060006060848603121562000c5857600080fd5b83516001600160401b038082111562000c7057600080fd5b62000c7e8783880162000bb1565b9450602086015191508082111562000c9557600080fd5b62000ca38783880162000bb1565b9350604086015191508082111562000cba57600080fd5b5062000cc98682870162000bb1565b9150509250925092565b634e487b7160e01b600052601160045260246000fd5b6000821982111562000cff5762000cff62000cd3565b500190565b600081600019048311821515161562000d215762000d2162000cd3565b500290565b600060001982141562000d3d5762000d3d62000cd3565b5060010190565b600060018060a01b03808716835280861660208401525083604083015260806060830152825180608084015262000d838160a085016020870162000b82565b601f01601f19169190910160a00195945050505050565b60006020828403121562000dad57600080fd5b81516001600160e01b03198116811462000dc657600080fd5b9392505050565b60008282101562000de25762000de262000cd3565b500390565b634e487b7160e01b600052603260045260246000fd5b634e487b7160e01b600052603160045260246000fd5b600181811c9082168062000e2857607f821691505b6020821081141562000e4a57634e487b7160e01b600052602260045260246000fd5b50919050565b6126288062000e606000396000f3fe6080604052600436106102465760003560e01c806351830227116101395780639c70b512116100b6578063c87b56dd1161007a578063c87b56dd14610669578063d5abeb0114610689578063d936547e1461069f578063da3ef23f146106cf578063e985e9c5146106ef578063f2fde38b1461073857600080fd5b80639c70b512146105de578063a22cb465146105fe578063b88d4fde1461061e578063c66828621461063e578063c78ad77f1461065357600080fd5b806370a08231116100fd57806370a0823114610556578063715018a6146105765780637f00c7a61461058b5780638da5cb5b146105ab57806395d89b41146105c957600080fd5b806351830227146104c857806355f804b3146104e75780635c975abb146105075780636352211e146105215780636c0360eb1461054157600080fd5b80632f745c59116101c757806342842e0e1161018b57806342842e0e1461041b578063438b63001461043b57806344a0d68a146104685780634a4c560d146104885780634f6ccce7146104a857600080fd5b80632f745c59146103a057806330cc7ae0146103c05780633af32abf146103e05780633ccfd60b1461040057806340c10f191461040857600080fd5b8063095ea7b31161020e578063095ea7b31461031157806313faede61461033157806318160ddd14610355578063239c70ae1461036a57806323b872dd1461038057600080fd5b806301ffc9a71461024b57806302329a291461028057806306fdde03146102a2578063081812fc146102c4578063081c8c44146102fc575b600080fd5b34801561025757600080fd5b5061026b610266366004611f82565b610758565b60405190151581526020015b60405180910390f35b34801561028c57600080fd5b506102a061029b366004611faf565b610783565b005b3480156102ae57600080fd5b506102b76107c9565b6040516102779190612022565b3480156102d057600080fd5b506102e46102df366004612035565b61085b565b6040516001600160a01b039091168152602001610277565b34801561030857600080fd5b506102b76108f0565b34801561031d57600080fd5b506102a061032c366004612065565b61097e565b34801561033d57600080fd5b50610347600e5481565b604051908152602001610277565b34801561036157600080fd5b50600854610347565b34801561037657600080fd5b5061034760105481565b34801561038c57600080fd5b506102a061039b36600461208f565b610a94565b3480156103ac57600080fd5b506103476103bb366004612065565b610ac5565b3480156103cc57600080fd5b506102a06103db3660046120cb565b610b5b565b3480156103ec57600080fd5b5061026b6103fb3660046120cb565b610ba6565b6102a0610bf6565b6102a0610416366004612065565b610c46565b34801561042757600080fd5b506102a061043636600461208f565b610eb5565b34801561044757600080fd5b5061045b6104563660046120cb565b610ed0565b60405161027791906120e6565b34801561047457600080fd5b506102a0610483366004612035565b610f72565b34801561049457600080fd5b506102a06104a33660046120cb565b610fa1565b3480156104b457600080fd5b506103476104c3366004612035565b610fef565b3480156104d457600080fd5b5060125461026b90610100900460ff1681565b3480156104f357600080fd5b506102a06105023660046121b6565b611082565b34801561051357600080fd5b5060125461026b9060ff1681565b34801561052d57600080fd5b506102e461053c366004612035565b6110c3565b34801561054d57600080fd5b506102b761113a565b34801561056257600080fd5b506103476105713660046120cb565b611147565b34801561058257600080fd5b506102a06111ce565b34801561059757600080fd5b506102a06105a6366004612035565b611202565b3480156105b757600080fd5b50600a546001600160a01b03166102e4565b3480156105d557600080fd5b506102b7611231565b3480156105ea57600080fd5b5060125461026b9062010000900460ff1681565b34801561060a57600080fd5b506102a06106193660046121ff565b611240565b34801561062a57600080fd5b506102a0610639366004612232565b611305565b34801561064a57600080fd5b506102b7611337565b34801561065f57600080fd5b5061034760115481565b34801561067557600080fd5b506102b7610684366004612035565b611344565b34801561069557600080fd5b50610347600f5481565b3480156106ab57600080fd5b5061026b6106ba3660046120cb565b60136020526000908152604090205460ff1681565b3480156106db57600080fd5b506102a06106ea3660046121b6565b611422565b3480156106fb57600080fd5b5061026b61070a3660046122ae565b6001600160a01b03918216600090815260056020908152604080832093909416825291909152205460ff1690565b34801561074457600080fd5b506102a06107533660046120cb565b61145f565b60006001600160e01b0319821663780e9d6360e01b148061077d575061077d82611500565b92915050565b600a546001600160a01b031633146107b65760405162461bcd60e51b81526004016107ad906122d8565b60405180910390fd5b6012805460ff1916911515919091179055565b6060600080546107d89061230d565b80601f01602080910402602001604051908101604052809291908181526020018280546108049061230d565b80156108515780601f1061082657610100808354040283529160200191610851565b820191906000526020600020905b81548152906001019060200180831161083457829003601f168201915b5050505050905090565b6000818152600260205260408120546001600160a01b03166108d45760405162461bcd60e51b815260206004820152602c60248201527f4552433732313a20617070726f76656420717565727920666f72206e6f6e657860448201526b34b9ba32b73a103a37b5b2b760a11b60648201526084016107ad565b506000908152600460205260409020546001600160a01b031690565b600d80546108fd9061230d565b80601f01602080910402602001604051908101604052809291908181526020018280546109299061230d565b80156109765780601f1061094b57610100808354040283529160200191610976565b820191906000526020600020905b81548152906001019060200180831161095957829003601f168201915b505050505081565b6000610989826110c3565b9050806001600160a01b0316836001600160a01b031614156109f75760405162461bcd60e51b815260206004820152602160248201527f4552433732313a20617070726f76616c20746f2063757272656e74206f776e656044820152603960f91b60648201526084016107ad565b336001600160a01b0382161480610a135750610a13813361070a565b610a855760405162461bcd60e51b815260206004820152603860248201527f4552433732313a20617070726f76652063616c6c6572206973206e6f74206f7760448201527f6e6572206e6f7220617070726f76656420666f7220616c6c000000000000000060648201526084016107ad565b610a8f8383611550565b505050565b610a9e33826115be565b610aba5760405162461bcd60e51b81526004016107ad90612348565b610a8f8383836116b5565b6000610ad083611147565b8210610b325760405162461bcd60e51b815260206004820152602b60248201527f455243373231456e756d657261626c653a206f776e657220696e646578206f7560448201526a74206f6620626f756e647360a81b60648201526084016107ad565b506001600160a01b03919091166000908152600660209081526040808320938352929052205490565b600a546001600160a01b03163314610b855760405162461bcd60e51b81526004016107ad906122d8565b6001600160a01b03166000908152601360205260409020805460ff19169055565b600a546000906001600160a01b03163314610bd35760405162461bcd60e51b81526004016107ad906122d8565b506001600160a01b03811660009081526013602052604090205460ff165b919050565b600a546001600160a01b03163314610c205760405162461bcd60e51b81526004016107ad906122d8565b60405133904780156108fc02916000818181858888f19350505050610c4457600080fd5b565b6000610c5160085490565b60125490915060ff1615610ca05760405162461bcd60e51b81526020600482015260166024820152751d1a194818dbdb9d1c9858dd081a5cc81c185d5cd95960521b60448201526064016107ad565b60008211610cf05760405162461bcd60e51b815260206004820152601b60248201527f6e65656420746f206d696e74206174206c656173742031204e4654000000000060448201526064016107ad565b601054821115610d4e5760405162461bcd60e51b8152602060048201526024808201527f6d6178206d696e7420616d6f756e74207065722073657373696f6e20657863656044820152631959195960e21b60648201526084016107ad565b600f54610d5b83836123af565b1115610da25760405162461bcd60e51b81526020600482015260166024820152751b585e08139195081b1a5b5a5d08195e18d95959195960521b60448201526064016107ad565b600a546001600160a01b03163314610e805760125462010000900460ff16151560011415610e2e573360009081526013602052604090205460ff161515600114610e2e5760405162461bcd60e51b815260206004820152601760248201527f75736572206973206e6f742077686974656c697374656400000000000000000060448201526064016107ad565b81600e54610e3c91906123c7565b341015610e805760405162461bcd60e51b8152602060048201526012602482015271696e73756666696369656e742066756e647360701b60448201526064016107ad565b60015b828111610eaf57610e9d84610e9883856123af565b611860565b80610ea7816123e6565b915050610e83565b50505050565b610a8f83838360405180602001604052806000815250611305565b60606000610edd83611147565b905060008167ffffffffffffffff811115610efa57610efa61212a565b604051908082528060200260200182016040528015610f23578160200160208202803683370190505b50905060005b82811015610f6a57610f3b8582610ac5565b828281518110610f4d57610f4d612401565b602090810291909101015280610f62816123e6565b915050610f29565b509392505050565b600a546001600160a01b03163314610f9c5760405162461bcd60e51b81526004016107ad906122d8565b600e55565b600a546001600160a01b03163314610fcb5760405162461bcd60e51b81526004016107ad906122d8565b6001600160a01b03166000908152601360205260409020805460ff19166001179055565b6000610ffa60085490565b821061105d5760405162461bcd60e51b815260206004820152602c60248201527f455243373231456e756d657261626c653a20676c6f62616c20696e646578206f60448201526b7574206f6620626f756e647360a01b60648201526084016107ad565b6008828154811061107057611070612401565b90600052602060002001549050919050565b600a546001600160a01b031633146110ac5760405162461bcd60e51b81526004016107ad906122d8565b80516110bf90600b906020840190611ed3565b5050565b6000818152600260205260408120546001600160a01b03168061077d5760405162461bcd60e51b815260206004820152602960248201527f4552433732313a206f776e657220717565727920666f72206e6f6e657869737460448201526832b73a103a37b5b2b760b91b60648201526084016107ad565b600b80546108fd9061230d565b60006001600160a01b0382166111b25760405162461bcd60e51b815260206004820152602a60248201527f4552433732313a2062616c616e636520717565727920666f7220746865207a65604482015269726f206164647265737360b01b60648201526084016107ad565b506001600160a01b031660009081526003602052604090205490565b600a546001600160a01b031633146111f85760405162461bcd60e51b81526004016107ad906122d8565b610c44600061187a565b600a546001600160a01b0316331461122c5760405162461bcd60e51b81526004016107ad906122d8565b601055565b6060600180546107d89061230d565b6001600160a01b0382163314156112995760405162461bcd60e51b815260206004820152601960248201527f4552433732313a20617070726f766520746f2063616c6c65720000000000000060448201526064016107ad565b3360008181526005602090815260408083206001600160a01b03871680855290835292819020805460ff191686151590811790915590519081529192917f17307eab39ab6107e8899845ad3d59bd9653f200f220920489ca2b5937696c31910160405180910390a35050565b61130f33836115be565b61132b5760405162461bcd60e51b81526004016107ad90612348565b610eaf848484846118cc565b600c80546108fd9061230d565b6000818152600260205260409020546060906001600160a01b03166113c35760405162461bcd60e51b815260206004820152602f60248201527f4552433732314d657461646174613a2055524920717565727920666f72206e6f60448201526e3732bc34b9ba32b73a103a37b5b2b760891b60648201526084016107ad565b60006113cd6118ff565b905060008151116113ed576040518060200160405280600081525061141b565b806113f78461190e565b600c60405160200161140b93929190612417565b6040516020818303038152906040525b9392505050565b600a546001600160a01b0316331461144c5760405162461bcd60e51b81526004016107ad906122d8565b80516110bf90600c906020840190611ed3565b600a546001600160a01b031633146114895760405162461bcd60e51b81526004016107ad906122d8565b6001600160a01b0381166114ee5760405162461bcd60e51b815260206004820152602660248201527f4f776e61626c653a206e6577206f776e657220697320746865207a65726f206160448201526564647265737360d01b60648201526084016107ad565b6114f78161187a565b50565b3b151590565b60006001600160e01b031982166380ac58cd60e01b148061153157506001600160e01b03198216635b5e139f60e01b145b8061077d57506301ffc9a760e01b6001600160e01b031983161461077d565b600081815260046020526040902080546001600160a01b0319166001600160a01b0384169081179091558190611585826110c3565b6001600160a01b03167f8c5be1e5ebec7d5bd14f71427d1e84f3dd0314c0f7b2291e5b200ac8c7c3b92560405160405180910390a45050565b6000818152600260205260408120546001600160a01b03166116375760405162461bcd60e51b815260206004820152602c60248201527f4552433732313a206f70657261746f7220717565727920666f72206e6f6e657860448201526b34b9ba32b73a103a37b5b2b760a11b60648201526084016107ad565b6000611642836110c3565b9050806001600160a01b0316846001600160a01b0316148061167d5750836001600160a01b03166116728461085b565b6001600160a01b0316145b806116ad57506001600160a01b0380821660009081526005602090815260408083209388168352929052205460ff165b949350505050565b826001600160a01b03166116c8826110c3565b6001600160a01b0316146117305760405162461bcd60e51b815260206004820152602960248201527f4552433732313a207472616e73666572206f6620746f6b656e2074686174206960448201526839903737ba1037bbb760b91b60648201526084016107ad565b6001600160a01b0382166117925760405162461bcd60e51b8152602060048201526024808201527f4552433732313a207472616e7366657220746f20746865207a65726f206164646044820152637265737360e01b60648201526084016107ad565b61179d838383611a0c565b6117a8600082611550565b6001600160a01b03831660009081526003602052604081208054600192906117d19084906124db565b90915550506001600160a01b03821660009081526003602052604081208054600192906117ff9084906123af565b909155505060008181526002602052604080822080546001600160a01b0319166001600160a01b0386811691821790925591518493918716917fddf252ad1be2c89b69c2b068fc378daa952ba7f163c4a11628f55a4df523b3ef91a4505050565b6110bf828260405180602001604052806000815250611ac4565b600a80546001600160a01b038381166001600160a01b0319831681179093556040519116919082907f8be0079c531659141344cd1fd0a4f28419497f9722a3daafe3b4186f6b6457e090600090a35050565b6118d78484846116b5565b6118e384848484611af7565b610eaf5760405162461bcd60e51b81526004016107ad906124f2565b6060600b80546107d89061230d565b6060816119325750506040805180820190915260018152600360fc1b602082015290565b8160005b811561195c5780611946816123e6565b91506119559050600a8361255a565b9150611936565b60008167ffffffffffffffff8111156119775761197761212a565b6040519080825280601f01601f1916602001820160405280156119a1576020820181803683370190505b5090505b84156116ad576119b66001836124db565b91506119c3600a8661256e565b6119ce9060306123af565b60f81b8183815181106119e3576119e3612401565b60200101906001600160f81b031916908160001a905350611a05600a8661255a565b94506119a5565b6001600160a01b038316611a6757611a6281600880546000838152600960205260408120829055600182018355919091527ff3f7a9fe364faab93b216da50a3214154f22a0a2b415b23a84c8169e8b636ee30155565b611a8a565b816001600160a01b0316836001600160a01b031614611a8a57611a8a8382611bf5565b6001600160a01b038216611aa157610a8f81611c92565b826001600160a01b0316826001600160a01b031614610a8f57610a8f8282611d41565b611ace8383611d85565b611adb6000848484611af7565b610a8f5760405162461bcd60e51b81526004016107ad906124f2565b60006001600160a01b0384163b15611bea57604051630a85bd0160e11b81526001600160a01b0385169063150b7a0290611b3b903390899088908890600401612582565b6020604051808303816000875af1925050508015611b76575060408051601f3d908101601f19168201909252611b73918101906125bf565b60015b611bd0573d808015611ba4576040519150601f19603f3d011682016040523d82523d6000602084013e611ba9565b606091505b508051611bc85760405162461bcd60e51b81526004016107ad906124f2565b805181602001fd5b6001600160e01b031916630a85bd0160e11b1490506116ad565b506001949350505050565b60006001611c0284611147565b611c0c91906124db565b600083815260076020526040902054909150808214611c5f576001600160a01b03841660009081526006602090815260408083208584528252808320548484528184208190558352600790915290208190555b5060009182526007602090815260408084208490556001600160a01b039094168352600681528383209183525290812055565b600854600090611ca4906001906124db565b60008381526009602052604081205460088054939450909284908110611ccc57611ccc612401565b906000526020600020015490508060088381548110611ced57611ced612401565b6000918252602080832090910192909255828152600990915260408082208490558582528120556008805480611d2557611d256125dc565b6001900381819060005260206000200160009055905550505050565b6000611d4c83611147565b6001600160a01b039093166000908152600660209081526040808320868452825280832085905593825260079052919091209190915550565b6001600160a01b038216611ddb5760405162461bcd60e51b815260206004820181905260248201527f4552433732313a206d696e7420746f20746865207a65726f206164647265737360448201526064016107ad565b6000818152600260205260409020546001600160a01b031615611e405760405162461bcd60e51b815260206004820152601c60248201527f4552433732313a20746f6b656e20616c7265616479206d696e7465640000000060448201526064016107ad565b611e4c60008383611a0c565b6001600160a01b0382166000908152600360205260408120805460019290611e759084906123af565b909155505060008181526002602052604080822080546001600160a01b0319166001600160a01b03861690811790915590518392907fddf252ad1be2c89b69c2b068fc378daa952ba7f163c4a11628f55a4df523b3ef908290a45050565b828054611edf9061230d565b90600052602060002090601f016020900481019282611f015760008555611f47565b82601f10611f1a57805160ff1916838001178555611f47565b82800160010185558215611f47579182015b82811115611f47578251825591602001919060010190611f2c565b50611f53929150611f57565b5090565b5b80821115611f535760008155600101611f58565b6001600160e01b0319811681146114f757600080fd5b600060208284031215611f9457600080fd5b813561141b81611f6c565b80358015158114610bf157600080fd5b600060208284031215611fc157600080fd5b61141b82611f9f565b60005b83811015611fe5578181015183820152602001611fcd565b83811115610eaf5750506000910152565b6000815180845261200e816020860160208601611fca565b601f01601f19169290920160200192915050565b60208152600061141b6020830184611ff6565b60006020828403121561204757600080fd5b5035919050565b80356001600160a01b0381168114610bf157600080fd5b6000806040838503121561207857600080fd5b6120818361204e565b946020939093013593505050565b6000806000606084860312156120a457600080fd5b6120ad8461204e565b92506120bb6020850161204e565b9150604084013590509250925092565b6000602082840312156120dd57600080fd5b61141b8261204e565b6020808252825182820181905260009190848201906040850190845b8181101561211e57835183529284019291840191600101612102565b50909695505050505050565b634e487b7160e01b600052604160045260246000fd5b600067ffffffffffffffff8084111561215b5761215b61212a565b604051601f8501601f19908116603f011681019082821181831017156121835761218361212a565b8160405280935085815286868601111561219c57600080fd5b858560208301376000602087830101525050509392505050565b6000602082840312156121c857600080fd5b813567ffffffffffffffff8111156121df57600080fd5b8201601f810184136121f057600080fd5b6116ad84823560208401612140565b6000806040838503121561221257600080fd5b61221b8361204e565b915061222960208401611f9f565b90509250929050565b6000806000806080858703121561224857600080fd5b6122518561204e565b935061225f6020860161204e565b925060408501359150606085013567ffffffffffffffff81111561228257600080fd5b8501601f8101871361229357600080fd5b6122a287823560208401612140565b91505092959194509250565b600080604083850312156122c157600080fd5b6122ca8361204e565b91506122296020840161204e565b6020808252818101527f4f776e61626c653a2063616c6c6572206973206e6f7420746865206f776e6572604082015260600190565b600181811c9082168061232157607f821691505b6020821081141561234257634e487b7160e01b600052602260045260246000fd5b50919050565b60208082526031908201527f4552433732313a207472616e736665722063616c6c6572206973206e6f74206f6040820152701ddb995c881b9bdc88185c1c1c9bdd9959607a1b606082015260800190565b634e487b7160e01b600052601160045260246000fd5b600082198211156123c2576123c2612399565b500190565b60008160001904831182151516156123e1576123e1612399565b500290565b60006000198214156123fa576123fa612399565b5060010190565b634e487b7160e01b600052603260045260246000fd5b60008451602061242a8285838a01611fca565b85519184019161243d8184848a01611fca565b8554920191600090600181811c908083168061245a57607f831692505b85831081141561247857634e487b7160e01b85526022600452602485fd5b80801561248c576001811461249d576124ca565b60ff198516885283880195506124ca565b60008b81526020902060005b858110156124c25781548a8201529084019088016124a9565b505083880195505b50939b9a5050505050505050505050565b6000828210156124ed576124ed612399565b500390565b60208082526032908201527f4552433732313a207472616e7366657220746f206e6f6e20455243373231526560408201527131b2b4bb32b91034b6b83632b6b2b73a32b960711b606082015260800190565b634e487b7160e01b600052601260045260246000fd5b60008261256957612569612544565b500490565b60008261257d5761257d612544565b500690565b6001600160a01b03858116825284166020820152604081018390526080606082018190526000906125b590830184611ff6565b9695505050505050565b6000602082840312156125d157600080fd5b815161141b81611f6c565b634e487b7160e01b600052603160045260246000fdfea26469706673582212202488b93e3c8a8b173553960e45a09a4e83c955be8f06b37f38b17bcf6f197c3e64736f6c634300080a00334552433732313a207472616e7366657220746f206e6f6e204552433732315265",
    "sourcePath": "/Users/kemosabe/Desktop/NFT_Dapp/contracts/SmartContract.sol",
    "compiler": {
        "name": "solc",
        "version": "0.8.10+commit.fc410830"
    },
    "functionHashes": {
        "approve(address,uint256)": "095ea7b3",
        "balanceOf(address)": "70a08231",
        "baseExtension()": "c6682862",
        "baseURI()": "6c0360eb",
        "cost()": "13faede6",
        "getApproved(uint256)": "081812fc",
        "isApprovedForAll(address,address)": "e985e9c5",
        "isWhitelisted(address)": "3af32abf",
        "maxMintAmount()": "239c70ae",
        "maxSupply()": "d5abeb01",
        "mint(address,uint256)": "40c10f19",
        "name()": "06fdde03",
        "notRevealedUri()": "081c8c44",
        "onlyWhitelisted()": "9c70b512",
        "owner()": "8da5cb5b",
        "ownerOf(uint256)": "6352211e",
        "pause(bool)": "02329a29",
        "paused()": "5c975abb",
        "percentage()": "c78ad77f",
        "removeWhitelistUser(address)": "30cc7ae0",
        "renounceOwnership()": "715018a6",
        "revealed()": "51830227",
        "safeTransferFrom(address,address,uint256)": "42842e0e",
        "safeTransferFrom(address,address,uint256,bytes)": "b88d4fde",
        "setApprovalForAll(address,bool)": "a22cb465",
        "setBaseExtension(string)": "da3ef23f",
        "setBaseURI(string)": "55f804b3",
        "setCost(uint256)": "44a0d68a",
        "setmaxMintAmount(uint256)": "7f00c7a6",
        "supportsInterface(bytes4)": "01ffc9a7",
        "symbol()": "95d89b41",
        "tokenByIndex(uint256)": "4f6ccce7",
        "tokenOfOwnerByIndex(address,uint256)": "2f745c59",
        "tokenURI(uint256)": "c87b56dd",
        "totalSupply()": "18160ddd",
        "transferFrom(address,address,uint256)": "23b872dd",
        "transferOwnership(address)": "f2fde38b",
        "walletOfOwner(address)": "438b6300",
        "whitelistUser(address)": "4a4c560d",
        "whitelisted(address)": "d936547e",
        "withdraw()": "3ccfd60b"
    },
    "gasEstimates": {
        "creation": {
            "codeDepositCost": "1953600",
            "executionCost": "infinite",
            "totalCost": "infinite"
        },
        "external": {
            "approve(address,uint256)": "infinite",
            "balanceOf(address)": "2634",
            "baseExtension()": "infinite",
            "baseURI()": "infinite",
            "cost()": "2363",
            "getApproved(uint256)": "4805",
            "isApprovedForAll(address,address)": "infinite",
            "isWhitelisted(address)": "infinite",
            "maxMintAmount()": "2407",
            "maxSupply()": "2361",
            "mint(address,uint256)": "infinite",
            "name()": "infinite",
            "notRevealedUri()": "infinite",
            "onlyWhitelisted()": "2355",
            "owner()": "2442",
            "ownerOf(uint256)": "2668",
            "pause(bool)": "26738",
            "paused()": "2389",
            "percentage()": "2428",
            "removeWhitelistUser(address)": "26812",
            "renounceOwnership()": "28184",
            "revealed()": "2356",
            "safeTransferFrom(address,address,uint256)": "infinite",
            "safeTransferFrom(address,address,uint256,bytes)": "infinite",
            "setApprovalForAll(address,bool)": "infinite",
            "setBaseExtension(string)": "infinite",
            "setBaseURI(string)": "infinite",
            "setCost(uint256)": "24553",
            "setmaxMintAmount(uint256)": "24553",
            "supportsInterface(bytes4)": "infinite",
            "symbol()": "infinite",
            "tokenByIndex(uint256)": "6848",
            "tokenOfOwnerByIndex(address,uint256)": "4976",
            "tokenURI(uint256)": "infinite",
            "totalSupply()": "2382",
            "transferFrom(address,address,uint256)": "infinite",
            "transferOwnership(address)": "28466",
            "walletOfOwner(address)": "infinite",
            "whitelistUser(address)": "26861",
            "whitelisted(address)": "2608",
            "withdraw()": "infinite"
        },
        "internal": {
            "_baseURI()": "infinite"
        }
    }
}