{
    "contractName": "PudgyPresent",
    "abi": [
        {
            "inputs": [
                {
                    "internalType": "string",
                    "name": "baseURI",
                    "type": "string"
                }
            ],
            "stateMutability": "nonpayable",
            "type": "constructor"
        },
        {
            "anonymous": false,
            "inputs": [
                {
                    "indexed": true,
                    "internalType": "address",
                    "name": "owner",
                    "type": "address"
                },
                {
                    "indexed": true,
                    "internalType": "address",
                    "name": "approved",
                    "type": "address"
                },
                {
                    "indexed": true,
                    "internalType": "uint256",
                    "name": "tokenId",
                    "type": "uint256"
                }
            ],
            "name": "Approval",
            "type": "event"
        },
        {
            "anonymous": false,
            "inputs": [
                {
                    "indexed": true,
                    "internalType": "address",
                    "name": "owner",
                    "type": "address"
                },
                {
                    "indexed": true,
                    "internalType": "address",
                    "name": "operator",
                    "type": "address"
                },
                {
                    "indexed": false,
                    "internalType": "bool",
                    "name": "approved",
                    "type": "bool"
                }
            ],
            "name": "ApprovalForAll",
            "type": "event"
        },
        {
            "anonymous": false,
            "inputs": [
                {
                    "indexed": true,
                    "internalType": "uint256",
                    "name": "id",
                    "type": "uint256"
                }
            ],
            "name": "CreatePenguinPresent",
            "type": "event"
        },
        {
            "anonymous": false,
            "inputs": [
                {
                    "indexed": true,
                    "internalType": "address",
                    "name": "previousOwner",
                    "type": "address"
                },
                {
                    "indexed": true,
                    "internalType": "address",
                    "name": "newOwner",
                    "type": "address"
                }
            ],
            "name": "OwnershipTransferred",
            "type": "event"
        },
        {
            "anonymous": false,
            "inputs": [
                {
                    "indexed": false,
                    "internalType": "address",
                    "name": "account",
                    "type": "address"
                }
            ],
            "name": "Paused",
            "type": "event"
        },
        {
            "anonymous": false,
            "inputs": [
                {
                    "indexed": true,
                    "internalType": "address",
                    "name": "from",
                    "type": "address"
                },
                {
                    "indexed": true,
                    "internalType": "address",
                    "name": "to",
                    "type": "address"
                },
                {
                    "indexed": true,
                    "internalType": "uint256",
                    "name": "tokenId",
                    "type": "uint256"
                }
            ],
            "name": "Transfer",
            "type": "event"
        },
        {
            "anonymous": false,
            "inputs": [
                {
                    "indexed": false,
                    "internalType": "address",
                    "name": "account",
                    "type": "address"
                }
            ],
            "name": "Unpaused",
            "type": "event"
        },
        {
            "inputs": [],
            "name": "MAX_BY_MINT",
            "outputs": [
                {
                    "internalType": "uint256",
                    "name": "",
                    "type": "uint256"
                }
            ],
            "stateMutability": "view",
            "type": "function",
            "constant": true
        },
        {
            "inputs": [],
            "name": "MAX_ELEMENTS",
            "outputs": [
                {
                    "internalType": "uint256",
                    "name": "",
                    "type": "uint256"
                }
            ],
            "stateMutability": "view",
            "type": "function",
            "constant": true
        },
        {
            "inputs": [
                {
                    "internalType": "address",
                    "name": "to",
                    "type": "address"
                },
                {
                    "internalType": "uint256",
                    "name": "tokenId",
                    "type": "uint256"
                }
            ],
            "name": "approve",
            "outputs": [],
            "stateMutability": "nonpayable",
            "type": "function"
        },
        {
            "inputs": [
                {
                    "internalType": "address",
                    "name": "owner",
                    "type": "address"
                }
            ],
            "name": "balanceOf",
            "outputs": [
                {
                    "internalType": "uint256",
                    "name": "",
                    "type": "uint256"
                }
            ],
            "stateMutability": "view",
            "type": "function",
            "constant": true
        },
        {
            "inputs": [],
            "name": "baseTokenURI",
            "outputs": [
                {
                    "internalType": "string",
                    "name": "",
                    "type": "string"
                }
            ],
            "stateMutability": "view",
            "type": "function",
            "constant": true
        },
        {
            "inputs": [
                {
                    "internalType": "uint256",
                    "name": "tokenId",
                    "type": "uint256"
                }
            ],
            "name": "burn",
            "outputs": [],
            "stateMutability": "nonpayable",
            "type": "function"
        },
        {
            "inputs": [],
            "name": "creatorAddress",
            "outputs": [
                {
                    "internalType": "address",
                    "name": "",
                    "type": "address"
                }
            ],
            "stateMutability": "view",
            "type": "function",
            "constant": true
        },
        {
            "inputs": [],
            "name": "devAddress",
            "outputs": [
                {
                    "internalType": "address",
                    "name": "",
                    "type": "address"
                }
            ],
            "stateMutability": "view",
            "type": "function",
            "constant": true
        },
        {
            "inputs": [],
            "name": "endClaim_timestamp",
            "outputs": [
                {
                    "internalType": "uint256",
                    "name": "",
                    "type": "uint256"
                }
            ],
            "stateMutability": "view",
            "type": "function",
            "constant": true
        },
        {
            "inputs": [
                {
                    "internalType": "uint256",
                    "name": "tokenId",
                    "type": "uint256"
                }
            ],
            "name": "getApproved",
            "outputs": [
                {
                    "internalType": "address",
                    "name": "",
                    "type": "address"
                }
            ],
            "stateMutability": "view",
            "type": "function",
            "constant": true
        },
        {
            "inputs": [
                {
                    "internalType": "address",
                    "name": "owner",
                    "type": "address"
                },
                {
                    "internalType": "address",
                    "name": "operator",
                    "type": "address"
                }
            ],
            "name": "isApprovedForAll",
            "outputs": [
                {
                    "internalType": "bool",
                    "name": "",
                    "type": "bool"
                }
            ],
            "stateMutability": "view",
            "type": "function",
            "constant": true
        },
        {
            "inputs": [],
            "name": "name",
            "outputs": [
                {
                    "internalType": "string",
                    "name": "",
                    "type": "string"
                }
            ],
            "stateMutability": "view",
            "type": "function",
            "constant": true
        },
        {
            "inputs": [],
            "name": "owner",
            "outputs": [
                {
                    "internalType": "address",
                    "name": "",
                    "type": "address"
                }
            ],
            "stateMutability": "view",
            "type": "function",
            "constant": true
        },
        {
            "inputs": [
                {
                    "internalType": "uint256",
                    "name": "tokenId",
                    "type": "uint256"
                }
            ],
            "name": "ownerOf",
            "outputs": [
                {
                    "internalType": "address",
                    "name": "",
                    "type": "address"
                }
            ],
            "stateMutability": "view",
            "type": "function",
            "constant": true
        },
        {
            "inputs": [],
            "name": "paused",
            "outputs": [
                {
                    "internalType": "bool",
                    "name": "",
                    "type": "bool"
                }
            ],
            "stateMutability": "view",
            "type": "function",
            "constant": true
        },
        {
            "inputs": [],
            "name": "pudgyPenguins",
            "outputs": [
                {
                    "internalType": "contract PudgyPenguinsInterface",
                    "name": "",
                    "type": "address"
                }
            ],
            "stateMutability": "view",
            "type": "function",
            "constant": true
        },
        {
            "inputs": [],
            "name": "renounceOwnership",
            "outputs": [],
            "stateMutability": "nonpayable",
            "type": "function"
        },
        {
            "inputs": [
                {
                    "internalType": "address",
                    "name": "from",
                    "type": "address"
                },
                {
                    "internalType": "address",
                    "name": "to",
                    "type": "address"
                },
                {
                    "internalType": "uint256",
                    "name": "tokenId",
                    "type": "uint256"
                }
            ],
            "name": "safeTransferFrom",
            "outputs": [],
            "stateMutability": "nonpayable",
            "type": "function"
        },
        {
            "inputs": [
                {
                    "internalType": "address",
                    "name": "from",
                    "type": "address"
                },
                {
                    "internalType": "address",
                    "name": "to",
                    "type": "address"
                },
                {
                    "internalType": "uint256",
                    "name": "tokenId",
                    "type": "uint256"
                },
                {
                    "internalType": "bytes",
                    "name": "_data",
                    "type": "bytes"
                }
            ],
            "name": "safeTransferFrom",
            "outputs": [],
            "stateMutability": "nonpayable",
            "type": "function"
        },
        {
            "inputs": [
                {
                    "internalType": "address",
                    "name": "operator",
                    "type": "address"
                },
                {
                    "internalType": "bool",
                    "name": "approved",
                    "type": "bool"
                }
            ],
            "name": "setApprovalForAll",
            "outputs": [],
            "stateMutability": "nonpayable",
            "type": "function"
        },
        {
            "inputs": [],
            "name": "symbol",
            "outputs": [
                {
                    "internalType": "string",
                    "name": "",
                    "type": "string"
                }
            ],
            "stateMutability": "view",
            "type": "function",
            "constant": true
        },
        {
            "inputs": [
                {
                    "internalType": "uint256",
                    "name": "index",
                    "type": "uint256"
                }
            ],
            "name": "tokenByIndex",
            "outputs": [
                {
                    "internalType": "uint256",
                    "name": "",
                    "type": "uint256"
                }
            ],
            "stateMutability": "view",
            "type": "function",
            "constant": true
        },
        {
            "inputs": [
                {
                    "internalType": "address",
                    "name": "owner",
                    "type": "address"
                },
                {
                    "internalType": "uint256",
                    "name": "index",
                    "type": "uint256"
                }
            ],
            "name": "tokenOfOwnerByIndex",
            "outputs": [
                {
                    "internalType": "uint256",
                    "name": "",
                    "type": "uint256"
                }
            ],
            "stateMutability": "view",
            "type": "function",
            "constant": true
        },
        {
            "inputs": [
                {
                    "internalType": "uint256",
                    "name": "tokenId",
                    "type": "uint256"
                }
            ],
            "name": "tokenURI",
            "outputs": [
                {
                    "internalType": "string",
                    "name": "",
                    "type": "string"
                }
            ],
            "stateMutability": "view",
            "type": "function",
            "constant": true
        },
        {
            "inputs": [],
            "name": "totalSupply",
            "outputs": [
                {
                    "internalType": "uint256",
                    "name": "",
                    "type": "uint256"
                }
            ],
            "stateMutability": "view",
            "type": "function",
            "constant": true
        },
        {
            "inputs": [
                {
                    "internalType": "address",
                    "name": "from",
                    "type": "address"
                },
                {
                    "internalType": "address",
                    "name": "to",
                    "type": "address"
                },
                {
                    "internalType": "uint256",
                    "name": "tokenId",
                    "type": "uint256"
                }
            ],
            "name": "transferFrom",
            "outputs": [],
            "stateMutability": "nonpayable",
            "type": "function"
        },
        {
            "inputs": [
                {
                    "internalType": "address",
                    "name": "newOwner",
                    "type": "address"
                }
            ],
            "name": "transferOwnership",
            "outputs": [],
            "stateMutability": "nonpayable",
            "type": "function"
        },
        {
            "inputs": [],
            "name": "totalMint",
            "outputs": [
                {
                    "internalType": "uint256",
                    "name": "",
                    "type": "uint256"
                }
            ],
            "stateMutability": "view",
            "type": "function",
            "constant": true
        },
        {
            "inputs": [
                {
                    "internalType": "address",
                    "name": "_to",
                    "type": "address"
                },
                {
                    "internalType": "uint256[]",
                    "name": "_tokensId",
                    "type": "uint256[]"
                }
            ],
            "name": "mint",
            "outputs": [],
            "stateMutability": "payable",
            "type": "function",
            "payable": true
        },
        {
            "inputs": [
                {
                    "internalType": "uint256",
                    "name": "_tokenId",
                    "type": "uint256"
                }
            ],
            "name": "canClaim",
            "outputs": [
                {
                    "internalType": "bool",
                    "name": "",
                    "type": "bool"
                }
            ],
            "stateMutability": "view",
            "type": "function",
            "constant": true
        },
        {
            "inputs": [
                {
                    "internalType": "string",
                    "name": "baseURI",
                    "type": "string"
                }
            ],
            "name": "setBaseURI",
            "outputs": [],
            "stateMutability": "nonpayable",
            "type": "function"
        },
        {
            "inputs": [
                {
                    "internalType": "address",
                    "name": "_owner",
                    "type": "address"
                }
            ],
            "name": "walletOfOwner",
            "outputs": [
                {
                    "internalType": "uint256[]",
                    "name": "",
                    "type": "uint256[]"
                }
            ],
            "stateMutability": "view",
            "type": "function",
            "constant": true
        },
        {
            "inputs": [
                {
                    "internalType": "bool",
                    "name": "val",
                    "type": "bool"
                }
            ],
            "name": "pause",
            "outputs": [],
            "stateMutability": "nonpayable",
            "type": "function"
        },
        {
            "inputs": [
                {
                    "internalType": "bytes4",
                    "name": "interfaceId",
                    "type": "bytes4"
                }
            ],
            "name": "supportsInterface",
            "outputs": [
                {
                    "internalType": "bool",
                    "name": "",
                    "type": "bool"
                }
            ],
            "stateMutability": "view",
            "type": "function",
            "constant": true
        },
        {
            "inputs": [
                {
                    "internalType": "uint256",
                    "name": "_end",
                    "type": "uint256"
                }
            ],
            "name": "setEndClaimDate",
            "outputs": [],
            "stateMutability": "nonpayable",
            "type": "function"
        },
        {
            "inputs": [],
            "name": "getEndClaimDate",
            "outputs": [
                {
                    "internalType": "uint256",
                    "name": "",
                    "type": "uint256"
                }
            ],
            "stateMutability": "view",
            "type": "function",
            "constant": true
        },
        {
            "inputs": [
                {
                    "internalType": "address",
                    "name": "_pudgyPenguins",
                    "type": "address"
                }
            ],
            "name": "setPudgyPenguins",
            "outputs": [],
            "stateMutability": "nonpayable",
            "type": "function"
        },
        {
            "inputs": [],
            "name": "withdrawAll",
            "outputs": [],
            "stateMutability": "payable",
            "type": "function",
            "payable": true
        }
    ],
    "bytecode": "0x60806040526361367340600c553480156200001957600080fd5b50604051620058f9380380620058f983398181016040528101906200003f919062000662565b6040518060400160405280600c81526020017f507564677950726573656e7400000000000000000000000000000000000000008152506040518060400160405280600281526020017f50500000000000000000000000000000000000000000000000000000000000008152508160009080519060200190620000c392919062000534565b508060019080519060200190620000dc92919062000534565b505050620000ff620000f36200014460201b60201c565b6200014c60201b60201c565b6000600a60146101000a81548160ff0219169083151502179055506200012b816200021260201b60201c565b6200013d6001620002bd60201b60201c565b5062000a00565b600033905090565b6000600a60009054906101000a900473ffffffffffffffffffffffffffffffffffffffff16905081600a60006101000a81548173ffffffffffffffffffffffffffffffffffffffff021916908373ffffffffffffffffffffffffffffffffffffffff1602179055508173ffffffffffffffffffffffffffffffffffffffff168173ffffffffffffffffffffffffffffffffffffffff167f8be0079c531659141344cd1fd0a4f28419497f9722a3daafe3b4186f6b6457e060405160405180910390a35050565b620002226200014460201b60201c565b73ffffffffffffffffffffffffffffffffffffffff16620002486200038460201b60201c565b73ffffffffffffffffffffffffffffffffffffffff1614620002a1576040517f08c379a000000000000000000000000000000000000000000000000000000000815260040162000298906200079a565b60405180910390fd5b80600e9080519060200190620002b992919062000534565b5050565b620002cd6200014460201b60201c565b73ffffffffffffffffffffffffffffffffffffffff16620002f36200038460201b60201c565b73ffffffffffffffffffffffffffffffffffffffff16146200034c576040517f08c379a000000000000000000000000000000000000000000000000000000000815260040162000343906200079a565b60405180910390fd5b60011515811515141562000370576200036a620003ae60201b60201c565b62000381565b620003806200046660201b60201c565b5b50565b6000600a60009054906101000a900473ffffffffffffffffffffffffffffffffffffffff16905090565b620003be6200051d60201b60201c565b1562000401576040517f08c379a0000000000000000000000000000000000000000000000000000000008152600401620003f89062000778565b60405180910390fd5b6001600a60146101000a81548160ff0219169083151502179055507f62e78cea01bee320cd4e420270b5ea74000d11b0c9f74754ebdbfc544b05a2586200044d6200014460201b60201c565b6040516200045c919062000739565b60405180910390a1565b620004766200051d60201b60201c565b620004b8576040517f08c379a0000000000000000000000000000000000000000000000000000000008152600401620004af9062000756565b60405180910390fd5b6000600a60146101000a81548160ff0219169083151502179055507f5db9ee0a495bf2e6ff9c91a7834c1ba4fdd244a5e8aa4e537bd38aeae4b073aa620005046200014460201b60201c565b60405162000513919062000739565b60405180910390a1565b6000600a60149054906101000a900460ff16905090565b828054620005429062000896565b90600052602060002090601f016020900481019282620005665760008555620005b2565b82601f106200058157805160ff1916838001178555620005b2565b82800160010185558215620005b2579182015b82811115620005b157825182559160200191906001019062000594565b5b509050620005c19190620005c5565b5090565b5b80821115620005e0576000816000905550600101620005c6565b5090565b6000620005fb620005f584620007e5565b620007bc565b9050828152602081018484840111156200061a576200061962000965565b5b6200062784828562000860565b509392505050565b600082601f83011262000647576200064662000960565b5b815162000659848260208601620005e4565b91505092915050565b6000602082840312156200067b576200067a6200096f565b5b600082015167ffffffffffffffff8111156200069c576200069b6200096a565b5b620006aa848285016200062f565b91505092915050565b620006be816200082c565b82525050565b6000620006d36014836200081b565b9150620006e08262000985565b602082019050919050565b6000620006fa6010836200081b565b91506200070782620009ae565b602082019050919050565b6000620007216020836200081b565b91506200072e82620009d7565b602082019050919050565b6000602082019050620007506000830184620006b3565b92915050565b600060208201905081810360008301526200077181620006c4565b9050919050565b600060208201905081810360008301526200079381620006eb565b9050919050565b60006020820190508181036000830152620007b58162000712565b9050919050565b6000620007c8620007db565b9050620007d68282620008cc565b919050565b6000604051905090565b600067ffffffffffffffff82111562000803576200080262000931565b5b6200080e8262000974565b9050602081019050919050565b600082825260208201905092915050565b6000620008398262000840565b9050919050565b600073ffffffffffffffffffffffffffffffffffffffff82169050919050565b60005b838110156200088057808201518184015260208101905062000863565b8381111562000890576000848401525b50505050565b60006002820490506001821680620008af57607f821691505b60208210811415620008c657620008c562000902565b5b50919050565b620008d78262000974565b810181811067ffffffffffffffff82111715620008f957620008f862000931565b5b80604052505050565b7f4e487b7100000000000000000000000000000000000000000000000000000000600052602260045260246000fd5b7f4e487b7100000000000000000000000000000000000000000000000000000000600052604160045260246000fd5b600080fd5b600080fd5b600080fd5b600080fd5b6000601f19601f8301169050919050565b7f5061757361626c653a206e6f7420706175736564000000000000000000000000600082015250565b7f5061757361626c653a2070617573656400000000000000000000000000000000600082015250565b7f4f776e61626c653a2063616c6c6572206973206e6f7420746865206f776e6572600082015250565b614ee98062000a106000396000f3fe6080604052600436106102255760003560e01c80636352211e11610123578063a22cb465116100ab578063d547cfb71161006f578063d547cfb71461080e578063de836ebd14610839578063e927fc5c14610855578063e985e9c514610880578063f2fde38b146108bd57610225565b8063a22cb46514610717578063a4f29c2414610740578063b88d4fde1461076b578063c87b56dd14610794578063c95c0d89146107d157610225565b8063853828b6116100f2578063853828b6146106615780638ad5de281461066b5780638da5cb5b1461069657806395d89b41146106c15780639db4b20b146106ec57610225565b80636352211e146105a757806370a08231146105e4578063713d987114610621578063715018a61461064a57610225565b80633502a716116101b15780634f6c998c116101755780634f6c998c146104c25780634f6ccce7146104eb57806355f804b31461052857806359a7715a146105515780635c975abb1461057c57610225565b80633502a716146103dd5780633ad10ef61461040857806342842e0e1461043357806342966c681461045c578063438b63001461048557610225565b8063095ea7b3116101f8578063095ea7b3146102f857806318160ddd1461032157806323b872dd1461034c5780632d93a44e146103755780632f745c59146103a057610225565b806301ffc9a71461022a57806302329a291461026757806306fdde0314610290578063081812fc146102bb575b600080fd5b34801561023657600080fd5b50610251600480360381019061024c91906137a8565b6108e6565b60405161025e9190613e72565b60405180910390f35b34801561027357600080fd5b5061028e6004803603810190610289919061377b565b6108f8565b005b34801561029c57600080fd5b506102a561099a565b6040516102b29190613ea8565b60405180910390f35b3480156102c757600080fd5b506102e260048036038101906102dd919061384b565b610a2c565b6040516102ef9190613de9565b60405180910390f35b34801561030457600080fd5b5061031f600480360381019061031a919061373b565b610ab1565b005b34801561032d57600080fd5b50610336610bc9565b604051610343919061422a565b60405180910390f35b34801561035857600080fd5b50610373600480360381019061036e91906135c9565b610bd6565b005b34801561038157600080fd5b5061038a610c36565b604051610397919061422a565b60405180910390f35b3480156103ac57600080fd5b506103c760048036038101906103c2919061373b565b610c40565b6040516103d4919061422a565b60405180910390f35b3480156103e957600080fd5b506103f2610ce5565b6040516103ff919061422a565b60405180910390f35b34801561041457600080fd5b5061041d610ceb565b60405161042a9190613de9565b60405180910390f35b34801561043f57600080fd5b5061045a600480360381019061045591906135c9565b610d03565b005b34801561046857600080fd5b50610483600480360381019061047e919061384b565b610d23565b005b34801561049157600080fd5b506104ac60048036038101906104a7919061352f565b610d7f565b6040516104b99190613e50565b60405180910390f35b3480156104ce57600080fd5b506104e960048036038101906104e4919061352f565b610e2d565b005b3480156104f757600080fd5b50610512600480360381019061050d919061384b565b610eed565b60405161051f919061422a565b60405180910390f35b34801561053457600080fd5b5061054f600480360381019061054a9190613802565b610f5e565b005b34801561055d57600080fd5b50610566610ff4565b604051610573919061422a565b60405180910390f35b34801561058857600080fd5b50610591611003565b60405161059e9190613e72565b60405180910390f35b3480156105b357600080fd5b506105ce60048036038101906105c9919061384b565b61101a565b6040516105db9190613de9565b60405180910390f35b3480156105f057600080fd5b5061060b6004803603810190610606919061352f565b6110cc565b604051610618919061422a565b60405180910390f35b34801561062d57600080fd5b506106486004803603810190610643919061384b565b611184565b005b34801561065657600080fd5b5061065f61120a565b005b610669611292565b005b34801561067757600080fd5b50610680611385565b60405161068d919061422a565b60405180910390f35b3480156106a257600080fd5b506106ab61138a565b6040516106b89190613de9565b60405180910390f35b3480156106cd57600080fd5b506106d66113b4565b6040516106e39190613ea8565b60405180910390f35b3480156106f857600080fd5b50610701611446565b60405161070e9190613e8d565b60405180910390f35b34801561072357600080fd5b5061073e600480360381019061073991906136fb565b61146c565b005b34801561074c57600080fd5b506107556115ed565b604051610762919061422a565b60405180910390f35b34801561077757600080fd5b50610792600480360381019061078d919061361c565b6115f3565b005b3480156107a057600080fd5b506107bb60048036038101906107b6919061384b565b611655565b6040516107c89190613ea8565b60405180910390f35b3480156107dd57600080fd5b506107f860048036038101906107f3919061384b565b6116fc565b6040516108059190613e72565b60405180910390f35b34801561081a57600080fd5b5061082361171b565b6040516108309190613ea8565b60405180910390f35b610853600480360381019061084e919061369f565b6117a9565b005b34801561086157600080fd5b5061086a611b43565b6040516108779190613de9565b60405180910390f35b34801561088c57600080fd5b506108a760048036038101906108a29190613589565b611b5b565b6040516108b49190613e72565b60405180910390f35b3480156108c957600080fd5b506108e460048036038101906108df919061352f565b611bef565b005b60006108f182611ce7565b9050919050565b610900611d61565b73ffffffffffffffffffffffffffffffffffffffff1661091e61138a565b73ffffffffffffffffffffffffffffffffffffffff1614610974576040517f08c379a000000000000000000000000000000000000000000000000000000000815260040161096b9061412a565b60405180910390fd5b60011515811515141561098e57610989611d69565b610997565b610996611e0c565b5b50565b6060600080546109a990614580565b80601f01602080910402602001604051908101604052809291908181526020018280546109d590614580565b8015610a225780601f106109f757610100808354040283529160200191610a22565b820191906000526020600020905b815481529060010190602001808311610a0557829003601f168201915b5050505050905090565b6000610a3782611eae565b610a76576040517f08c379a0000000000000000000000000000000000000000000000000000000008152600401610a6d9061410a565b60405180910390fd5b6004600083815260200190815260200160002060009054906101000a900473ffffffffffffffffffffffffffffffffffffffff169050919050565b6000610abc8261101a565b90508073ffffffffffffffffffffffffffffffffffffffff168373ffffffffffffffffffffffffffffffffffffffff161415610b2d576040517f08c379a0000000000000000000000000000000000000000000000000000000008152600401610b249061418a565b60405180910390fd5b8073ffffffffffffffffffffffffffffffffffffffff16610b4c611d61565b73ffffffffffffffffffffffffffffffffffffffff161480610b7b5750610b7a81610b75611d61565b611b5b565b5b610bba576040517f08c379a0000000000000000000000000000000000000000000000000000000008152600401610bb19061406a565b60405180910390fd5b610bc48383611f1a565b505050565b6000600880549050905090565b610be7610be1611d61565b82611fd3565b610c26576040517f08c379a0000000000000000000000000000000000000000000000000000000008152600401610c1d906141ca565b60405180910390fd5b610c318383836120b1565b505050565b6000600c54905090565b6000610c4b836110cc565b8210610c8c576040517f08c379a0000000000000000000000000000000000000000000000000000000008152600401610c8390613f2a565b60405180910390fd5b600660008473ffffffffffffffffffffffffffffffffffffffff1673ffffffffffffffffffffffffffffffffffffffff168152602001908152602001600020600083815260200190815260200160002054905092915050565b6122b881565b73cbcc84766f2950cf867f42d766c43fb2d2ba325681565b610d1e838383604051806020016040528060008152506115f3565b505050565b610d34610d2e611d61565b82611fd3565b610d73576040517f08c379a0000000000000000000000000000000000000000000000000000000008152600401610d6a9061420a565b60405180910390fd5b610d7c8161230d565b50565b60606000610d8c836110cc565b905060008167ffffffffffffffff811115610daa57610da9614748565b5b604051908082528060200260200182016040528015610dd85781602001602082028036833780820191505090505b50905060005b82811015610e2257610df08582610c40565b828281518110610e0357610e02614719565b5b6020026020010181815250508080610e1a906145e3565b915050610dde565b508092505050919050565b610e35611d61565b73ffffffffffffffffffffffffffffffffffffffff16610e5361138a565b73ffffffffffffffffffffffffffffffffffffffff1614610ea9576040517f08c379a0000000000000000000000000000000000000000000000000000000008152600401610ea09061412a565b60405180910390fd5b80600f60006101000a81548173ffffffffffffffffffffffffffffffffffffffff021916908373ffffffffffffffffffffffffffffffffffffffff16021790555050565b6000610ef7610bc9565b8210610f38576040517f08c379a0000000000000000000000000000000000000000000000000000000008152600401610f2f906141ea565b60405180910390fd5b60088281548110610f4c57610f4b614719565b5b90600052602060002001549050919050565b610f66611d61565b73ffffffffffffffffffffffffffffffffffffffff16610f8461138a565b73ffffffffffffffffffffffffffffffffffffffff1614610fda576040517f08c379a0000000000000000000000000000000000000000000000000000000008152600401610fd19061412a565b60405180910390fd5b80600e9080519060200190610ff0929190613290565b5050565b6000610ffe61241e565b905090565b6000600a60149054906101000a900460ff16905090565b6000806002600084815260200190815260200160002060009054906101000a900473ffffffffffffffffffffffffffffffffffffffff169050600073ffffffffffffffffffffffffffffffffffffffff168173ffffffffffffffffffffffffffffffffffffffff1614156110c3576040517f08c379a00000000000000000000000000000000000000000000000000000000081526004016110ba906140aa565b60405180910390fd5b80915050919050565b60008073ffffffffffffffffffffffffffffffffffffffff168273ffffffffffffffffffffffffffffffffffffffff16141561113d576040517f08c379a00000000000000000000000000000000000000000000000000000000081526004016111349061408a565b60405180910390fd5b600360008373ffffffffffffffffffffffffffffffffffffffff1673ffffffffffffffffffffffffffffffffffffffff168152602001908152602001600020549050919050565b61118c611d61565b73ffffffffffffffffffffffffffffffffffffffff166111aa61138a565b73ffffffffffffffffffffffffffffffffffffffff1614611200576040517f08c379a00000000000000000000000000000000000000000000000000000000081526004016111f79061412a565b60405180910390fd5b80600c8190555050565b611212611d61565b73ffffffffffffffffffffffffffffffffffffffff1661123061138a565b73ffffffffffffffffffffffffffffffffffffffff1614611286576040517f08c379a000000000000000000000000000000000000000000000000000000000815260040161127d9061412a565b60405180910390fd5b611290600061242f565b565b61129a611d61565b73ffffffffffffffffffffffffffffffffffffffff166112b861138a565b73ffffffffffffffffffffffffffffffffffffffff161461130e576040517f08c379a00000000000000000000000000000000000000000000000000000000081526004016113059061412a565b60405180910390fd5b60004790506000811161132057600080fd5b61136473cbcc84766f2950cf867f42d766c43fb2d2ba325661135f60646113516023866124f590919063ffffffff16565b61250b90919063ffffffff16565b612521565b611382736f84fa72ca4554e0eefcb9032e5a4f1fb41b726c47612521565b50565b600a81565b6000600a60009054906101000a900473ffffffffffffffffffffffffffffffffffffffff16905090565b6060600180546113c390614580565b80601f01602080910402602001604051908101604052809291908181526020018280546113ef90614580565b801561143c5780601f106114115761010080835404028352916020019161143c565b820191906000526020600020905b81548152906001019060200180831161141f57829003601f168201915b5050505050905090565b600f60009054906101000a900473ffffffffffffffffffffffffffffffffffffffff1681565b611474611d61565b73ffffffffffffffffffffffffffffffffffffffff168273ffffffffffffffffffffffffffffffffffffffff1614156114e2576040517f08c379a00000000000000000000000000000000000000000000000000000000081526004016114d990613fea565b60405180910390fd5b80600560006114ef611d61565b73ffffffffffffffffffffffffffffffffffffffff1673ffffffffffffffffffffffffffffffffffffffff16815260200190815260200160002060008473ffffffffffffffffffffffffffffffffffffffff1673ffffffffffffffffffffffffffffffffffffffff16815260200190815260200160002060006101000a81548160ff0219169083151502179055508173ffffffffffffffffffffffffffffffffffffffff1661159c611d61565b73ffffffffffffffffffffffffffffffffffffffff167f17307eab39ab6107e8899845ad3d59bd9653f200f220920489ca2b5937696c31836040516115e19190613e72565b60405180910390a35050565b600c5481565b6116046115fe611d61565b83611fd3565b611643576040517f08c379a000000000000000000000000000000000000000000000000000000000815260040161163a906141ca565b60405180910390fd5b61164f848484846125d2565b50505050565b606061166082611eae565b61169f576040517f08c379a00000000000000000000000000000000000000000000000000000000081526004016116969061416a565b60405180910390fd5b60006116a961262e565b905060008151116116c957604051806020016040528060008152506116f4565b806116d3846126c0565b6040516020016116e4929190613db0565b6040516020818303038152906040525b915050919050565b600080600d600084815260200190815260200160002054149050919050565b600e805461172890614580565b80601f016020809104026020016040519081016040528092919081815260200182805461175490614580565b80156117a15780601f10611776576101008083540402835291602001916117a1565b820191906000526020600020905b81548152906001019060200180831161178457829003601f168201915b505050505081565b600c544211156117ee576040517f08c379a00000000000000000000000000000000000000000000000000000000081526004016117e5906140ca565b60405180910390fd5b6122b86117f961241e565b111561183a576040517f08c379a0000000000000000000000000000000000000000000000000000000008152600401611831906140ca565b60405180910390fd5b61184261138a565b73ffffffffffffffffffffffffffffffffffffffff16611860611d61565b73ffffffffffffffffffffffffffffffffffffffff16146118c457611883611003565b156118c3576040517f08c379a00000000000000000000000000000000000000000000000000000000081526004016118ba9061404a565b60405180910390fd5b5b60006118ce61241e565b90506122b8811115611915576040517f08c379a000000000000000000000000000000000000000000000000000000000815260040161190c906140ca565b60405180910390fd5b6122b8825182611925919061437f565b1115611966576040517f08c379a000000000000000000000000000000000000000000000000000000000815260040161195d9061400a565b60405180910390fd5b600a825111156119ab576040517f08c379a00000000000000000000000000000000000000000000000000000000081526004016119a290613f0a565b60405180910390fd5b60005b8251811015611b3d5760008382815181106119cc576119cb614719565b5b602002602001015190506119df816116fc565b8015611ac757506119ee611d61565b73ffffffffffffffffffffffffffffffffffffffff16600f60009054906101000a900473ffffffffffffffffffffffffffffffffffffffff1673ffffffffffffffffffffffffffffffffffffffff16636352211e836040518263ffffffff1660e01b8152600401611a5f919061422a565b60206040518083038186803b158015611a7757600080fd5b505afa158015611a8b573d6000803e3d6000fd5b505050506040513d601f19601f82011682018060405250810190611aaf919061355c565b73ffffffffffffffffffffffffffffffffffffffff16145b611b06576040517f08c379a0000000000000000000000000000000000000000000000000000000008152600401611afd90613faa565b60405180910390fd5b6001600d600083815260200190815260200160002081905550611b298582612821565b508080611b35906145e3565b9150506119ae565b50505050565b736f84fa72ca4554e0eefcb9032e5a4f1fb41b726c81565b6000600560008473ffffffffffffffffffffffffffffffffffffffff1673ffffffffffffffffffffffffffffffffffffffff16815260200190815260200160002060008373ffffffffffffffffffffffffffffffffffffffff1673ffffffffffffffffffffffffffffffffffffffff16815260200190815260200160002060009054906101000a900460ff16905092915050565b611bf7611d61565b73ffffffffffffffffffffffffffffffffffffffff16611c1561138a565b73ffffffffffffffffffffffffffffffffffffffff1614611c6b576040517f08c379a0000000000000000000000000000000000000000000000000000000008152600401611c629061412a565b60405180910390fd5b600073ffffffffffffffffffffffffffffffffffffffff168173ffffffffffffffffffffffffffffffffffffffff161415611cdb576040517f08c379a0000000000000000000000000000000000000000000000000000000008152600401611cd290613f6a565b60405180910390fd5b611ce48161242f565b50565b60007f780e9d63000000000000000000000000000000000000000000000000000000007bffffffffffffffffffffffffffffffffffffffffffffffffffffffff1916827bffffffffffffffffffffffffffffffffffffffffffffffffffffffff19161480611d5a5750611d5982612866565b5b9050919050565b600033905090565b611d71611003565b15611db1576040517f08c379a0000000000000000000000000000000000000000000000000000000008152600401611da89061404a565b60405180910390fd5b6001600a60146101000a81548160ff0219169083151502179055507f62e78cea01bee320cd4e420270b5ea74000d11b0c9f74754ebdbfc544b05a258611df5611d61565b604051611e029190613de9565b60405180910390a1565b611e14611003565b611e53576040517f08c379a0000000000000000000000000000000000000000000000000000000008152600401611e4a90613eea565b60405180910390fd5b6000600a60146101000a81548160ff0219169083151502179055507f5db9ee0a495bf2e6ff9c91a7834c1ba4fdd244a5e8aa4e537bd38aeae4b073aa611e97611d61565b604051611ea49190613de9565b60405180910390a1565b60008073ffffffffffffffffffffffffffffffffffffffff166002600084815260200190815260200160002060009054906101000a900473ffffffffffffffffffffffffffffffffffffffff1673ffffffffffffffffffffffffffffffffffffffff1614159050919050565b816004600083815260200190815260200160002060006101000a81548173ffffffffffffffffffffffffffffffffffffffff021916908373ffffffffffffffffffffffffffffffffffffffff160217905550808273ffffffffffffffffffffffffffffffffffffffff16611f8d8361101a565b73ffffffffffffffffffffffffffffffffffffffff167f8c5be1e5ebec7d5bd14f71427d1e84f3dd0314c0f7b2291e5b200ac8c7c3b92560405160405180910390a45050565b6000611fde82611eae565b61201d576040517f08c379a00000000000000000000000000000000000000000000000000000000081526004016120149061402a565b60405180910390fd5b60006120288361101a565b90508073ffffffffffffffffffffffffffffffffffffffff168473ffffffffffffffffffffffffffffffffffffffff16148061209757508373ffffffffffffffffffffffffffffffffffffffff1661207f84610a2c565b73ffffffffffffffffffffffffffffffffffffffff16145b806120a857506120a78185611b5b565b5b91505092915050565b8273ffffffffffffffffffffffffffffffffffffffff166120d18261101a565b73ffffffffffffffffffffffffffffffffffffffff1614612127576040517f08c379a000000000000000000000000000000000000000000000000000000000815260040161211e9061414a565b60405180910390fd5b600073ffffffffffffffffffffffffffffffffffffffff168273ffffffffffffffffffffffffffffffffffffffff161415612197576040517f08c379a000000000000000000000000000000000000000000000000000000000815260040161218e90613fca565b60405180910390fd5b6121a2838383612948565b6121ad600082611f1a565b6001600360008573ffffffffffffffffffffffffffffffffffffffff1673ffffffffffffffffffffffffffffffffffffffff16815260200190815260200160002060008282546121fd9190614460565b925050819055506001600360008473ffffffffffffffffffffffffffffffffffffffff1673ffffffffffffffffffffffffffffffffffffffff1681526020019081526020016000206000828254612254919061437f565b92505081905550816002600083815260200190815260200160002060006101000a81548173ffffffffffffffffffffffffffffffffffffffff021916908373ffffffffffffffffffffffffffffffffffffffff160217905550808273ffffffffffffffffffffffffffffffffffffffff168473ffffffffffffffffffffffffffffffffffffffff167fddf252ad1be2c89b69c2b068fc378daa952ba7f163c4a11628f55a4df523b3ef60405160405180910390a4505050565b60006123188261101a565b905061232681600084612948565b612331600083611f1a565b6001600360008373ffffffffffffffffffffffffffffffffffffffff1673ffffffffffffffffffffffffffffffffffffffff16815260200190815260200160002060008282546123819190614460565b925050819055506002600083815260200190815260200160002060006101000a81549073ffffffffffffffffffffffffffffffffffffffff021916905581600073ffffffffffffffffffffffffffffffffffffffff168273ffffffffffffffffffffffffffffffffffffffff167fddf252ad1be2c89b69c2b068fc378daa952ba7f163c4a11628f55a4df523b3ef60405160405180910390a45050565b600061242a600b612958565b905090565b6000600a60009054906101000a900473ffffffffffffffffffffffffffffffffffffffff16905081600a60006101000a81548173ffffffffffffffffffffffffffffffffffffffff021916908373ffffffffffffffffffffffffffffffffffffffff1602179055508173ffffffffffffffffffffffffffffffffffffffff168173ffffffffffffffffffffffffffffffffffffffff167f8be0079c531659141344cd1fd0a4f28419497f9722a3daafe3b4186f6b6457e060405160405180910390a35050565b600081836125039190614406565b905092915050565b6000818361251991906143d5565b905092915050565b60008273ffffffffffffffffffffffffffffffffffffffff168260405161254790613dd4565b60006040518083038185875af1925050503d8060008114612584576040519150601f19603f3d011682016040523d82523d6000602084013e612589565b606091505b50509050806125cd576040517f08c379a00000000000000000000000000000000000000000000000000000000081526004016125c4906141aa565b60405180910390fd5b505050565b6125dd8484846120b1565b6125e984848484612966565b612628576040517f08c379a000000000000000000000000000000000000000000000000000000000815260040161261f90613f4a565b60405180910390fd5b50505050565b6060600e805461263d90614580565b80601f016020809104026020016040519081016040528092919081815260200182805461266990614580565b80156126b65780601f1061268b576101008083540402835291602001916126b6565b820191906000526020600020905b81548152906001019060200180831161269957829003601f168201915b5050505050905090565b60606000821415612708576040518060400160405280600181526020017f3000000000000000000000000000000000000000000000000000000000000000815250905061281c565b600082905060005b6000821461273a578080612723906145e3565b915050600a8261273391906143d5565b9150612710565b60008167ffffffffffffffff81111561275657612755614748565b5b6040519080825280601f01601f1916602001820160405280156127885781602001600182028036833780820191505090505b5090505b60008514612815576001826127a19190614460565b9150600a856127b0919061462c565b60306127bc919061437f565b60f81b8183815181106127d2576127d1614719565b5b60200101907effffffffffffffffffffffffffffffffffffffffffffffffffffffffffffff1916908160001a905350600a8561280e91906143d5565b945061278c565b8093505050505b919050565b61282b600b612afd565b6128358282612b13565b807fdf0769872e7178409bf18f4c81d9d2c75e7729002aa806eccb640e280517496460405160405180910390a25050565b60007f80ac58cd000000000000000000000000000000000000000000000000000000007bffffffffffffffffffffffffffffffffffffffffffffffffffffffff1916827bffffffffffffffffffffffffffffffffffffffffffffffffffffffff1916148061293157507f5b5e139f000000000000000000000000000000000000000000000000000000007bffffffffffffffffffffffffffffffffffffffffffffffffffffffff1916827bffffffffffffffffffffffffffffffffffffffffffffffffffffffff1916145b80612941575061294082612b31565b5b9050919050565b612953838383612b9b565b505050565b600081600001549050919050565b60006129878473ffffffffffffffffffffffffffffffffffffffff16612c35565b15612af0578373ffffffffffffffffffffffffffffffffffffffff1663150b7a026129b0611d61565b8786866040518563ffffffff1660e01b81526004016129d29493929190613e04565b602060405180830381600087803b1580156129ec57600080fd5b505af1925050508015612a1d57506040513d601f19601f82011682018060405250810190612a1a91906137d5565b60015b612aa0573d8060008114612a4d576040519150601f19603f3d011682016040523d82523d6000602084013e612a52565b606091505b50600081511415612a98576040517f08c379a0000000000000000000000000000000000000000000000000000000008152600401612a8f90613f4a565b60405180910390fd5b805181602001fd5b63150b7a0260e01b7bffffffffffffffffffffffffffffffffffffffffffffffffffffffff1916817bffffffffffffffffffffffffffffffffffffffffffffffffffffffff191614915050612af5565b600190505b949350505050565b6001816000016000828254019250508190555050565b612b2d828260405180602001604052806000815250612c48565b5050565b60007f01ffc9a7000000000000000000000000000000000000000000000000000000007bffffffffffffffffffffffffffffffffffffffffffffffffffffffff1916827bffffffffffffffffffffffffffffffffffffffffffffffffffffffff1916149050919050565b612ba6838383612ca3565b612bae61138a565b73ffffffffffffffffffffffffffffffffffffffff16612bcc611d61565b73ffffffffffffffffffffffffffffffffffffffff1614612c3057612bef611003565b15612c2f576040517f08c379a0000000000000000000000000000000000000000000000000000000008152600401612c2690613eca565b60405180910390fd5b5b505050565b600080823b905060008111915050919050565b612c528383612db7565b612c5f6000848484612966565b612c9e576040517f08c379a0000000000000000000000000000000000000000000000000000000008152600401612c9590613f4a565b60405180910390fd5b505050565b612cae838383612f85565b600073ffffffffffffffffffffffffffffffffffffffff168373ffffffffffffffffffffffffffffffffffffffff161415612cf157612cec81612f8a565b612d30565b8173ffffffffffffffffffffffffffffffffffffffff168373ffffffffffffffffffffffffffffffffffffffff1614612d2f57612d2e8382612fd3565b5b5b600073ffffffffffffffffffffffffffffffffffffffff168273ffffffffffffffffffffffffffffffffffffffff161415612d7357612d6e81613140565b612db2565b8273ffffffffffffffffffffffffffffffffffffffff168273ffffffffffffffffffffffffffffffffffffffff1614612db157612db08282613211565b5b5b505050565b600073ffffffffffffffffffffffffffffffffffffffff168273ffffffffffffffffffffffffffffffffffffffff161415612e27576040517f08c379a0000000000000000000000000000000000000000000000000000000008152600401612e1e906140ea565b60405180910390fd5b612e3081611eae565b15612e70576040517f08c379a0000000000000000000000000000000000000000000000000000000008152600401612e6790613f8a565b60405180910390fd5b612e7c60008383612948565b6001600360008473ffffffffffffffffffffffffffffffffffffffff1673ffffffffffffffffffffffffffffffffffffffff1681526020019081526020016000206000828254612ecc919061437f565b92505081905550816002600083815260200190815260200160002060006101000a81548173ffffffffffffffffffffffffffffffffffffffff021916908373ffffffffffffffffffffffffffffffffffffffff160217905550808273ffffffffffffffffffffffffffffffffffffffff16600073ffffffffffffffffffffffffffffffffffffffff167fddf252ad1be2c89b69c2b068fc378daa952ba7f163c4a11628f55a4df523b3ef60405160405180910390a45050565b505050565b6008805490506009600083815260200190815260200160002081905550600881908060018154018082558091505060019003906000526020600020016000909190919091505550565b60006001612fe0846110cc565b612fea9190614460565b90506000600760008481526020019081526020016000205490508181146130cf576000600660008673ffffffffffffffffffffffffffffffffffffffff1673ffffffffffffffffffffffffffffffffffffffff168152602001908152602001600020600084815260200190815260200160002054905080600660008773ffffffffffffffffffffffffffffffffffffffff1673ffffffffffffffffffffffffffffffffffffffff168152602001908152602001600020600084815260200190815260200160002081905550816007600083815260200190815260200160002081905550505b6007600084815260200190815260200160002060009055600660008573ffffffffffffffffffffffffffffffffffffffff1673ffffffffffffffffffffffffffffffffffffffff16815260200190815260200160002060008381526020019081526020016000206000905550505050565b600060016008805490506131549190614460565b905060006009600084815260200190815260200160002054905060006008838154811061318457613183614719565b5b9060005260206000200154905080600883815481106131a6576131a5614719565b5b9060005260206000200181905550816009600083815260200190815260200160002081905550600960008581526020019081526020016000206000905560088054806131f5576131f46146ea565b5b6001900381819060005260206000200160009055905550505050565b600061321c836110cc565b905081600660008573ffffffffffffffffffffffffffffffffffffffff1673ffffffffffffffffffffffffffffffffffffffff168152602001908152602001600020600083815260200190815260200160002081905550806007600084815260200190815260200160002081905550505050565b82805461329c90614580565b90600052602060002090601f0160209004810192826132be5760008555613305565b82601f106132d757805160ff1916838001178555613305565b82800160010185558215613305579182015b828111156133045782518255916020019190600101906132e9565b5b5090506133129190613316565b5090565b5b8082111561332f576000816000905550600101613317565b5090565b60006133466133418461426a565b614245565b905080838252602082019050828560208602820111156133695761336861477c565b5b60005b85811015613399578161337f888261351a565b84526020840193506020830192505060018101905061336c565b5050509392505050565b60006133b66133b184614296565b614245565b9050828152602081018484840111156133d2576133d1614781565b5b6133dd84828561453e565b509392505050565b60006133f86133f3846142c7565b614245565b90508281526020810184848401111561341457613413614781565b5b61341f84828561453e565b509392505050565b60008135905061343681614e57565b92915050565b60008151905061344b81614e57565b92915050565b600082601f83011261346657613465614777565b5b8135613476848260208601613333565b91505092915050565b60008135905061348e81614e6e565b92915050565b6000813590506134a381614e85565b92915050565b6000815190506134b881614e85565b92915050565b600082601f8301126134d3576134d2614777565b5b81356134e38482602086016133a3565b91505092915050565b600082601f83011261350157613500614777565b5b81356135118482602086016133e5565b91505092915050565b60008135905061352981614e9c565b92915050565b6000602082840312156135455761354461478b565b5b600061355384828501613427565b91505092915050565b6000602082840312156135725761357161478b565b5b60006135808482850161343c565b91505092915050565b600080604083850312156135a05761359f61478b565b5b60006135ae85828601613427565b92505060206135bf85828601613427565b9150509250929050565b6000806000606084860312156135e2576135e161478b565b5b60006135f086828701613427565b935050602061360186828701613427565b92505060406136128682870161351a565b9150509250925092565b600080600080608085870312156136365761363561478b565b5b600061364487828801613427565b945050602061365587828801613427565b93505060406136668782880161351a565b925050606085013567ffffffffffffffff81111561368757613686614786565b5b613693878288016134be565b91505092959194509250565b600080604083850312156136b6576136b561478b565b5b60006136c485828601613427565b925050602083013567ffffffffffffffff8111156136e5576136e4614786565b5b6136f185828601613451565b9150509250929050565b600080604083850312156137125761371161478b565b5b600061372085828601613427565b92505060206137318582860161347f565b9150509250929050565b600080604083850312156137525761375161478b565b5b600061376085828601613427565b92505060206137718582860161351a565b9150509250929050565b6000602082840312156137915761379061478b565b5b600061379f8482850161347f565b91505092915050565b6000602082840312156137be576137bd61478b565b5b60006137cc84828501613494565b91505092915050565b6000602082840312156137eb576137ea61478b565b5b60006137f9848285016134a9565b91505092915050565b6000602082840312156138185761381761478b565b5b600082013567ffffffffffffffff81111561383657613835614786565b5b613842848285016134ec565b91505092915050565b6000602082840312156138615761386061478b565b5b600061386f8482850161351a565b91505092915050565b60006138848383613d92565b60208301905092915050565b61389981614494565b82525050565b60006138aa82614308565b6138b48185614336565b93506138bf836142f8565b8060005b838110156138f05781516138d78882613878565b97506138e283614329565b9250506001810190506138c3565b5085935050505092915050565b613906816144a6565b82525050565b600061391782614313565b6139218185614347565b935061393181856020860161454d565b61393a81614790565b840191505092915050565b61394e81614508565b82525050565b600061395f8261431e565b6139698185614363565b935061397981856020860161454d565b61398281614790565b840191505092915050565b60006139988261431e565b6139a28185614374565b93506139b281856020860161454d565b80840191505092915050565b60006139cb602b83614363565b91506139d6826147a1565b604082019050919050565b60006139ee601483614363565b91506139f9826147f0565b602082019050919050565b6000613a11600e83614363565b9150613a1c82614819565b602082019050919050565b6000613a34602b83614363565b9150613a3f82614842565b604082019050919050565b6000613a57603283614363565b9150613a6282614891565b604082019050919050565b6000613a7a602683614363565b9150613a85826148e0565b604082019050919050565b6000613a9d601c83614363565b9150613aa88261492f565b602082019050919050565b6000613ac0600a83614363565b9150613acb82614958565b602082019050919050565b6000613ae3602483614363565b9150613aee82614981565b604082019050919050565b6000613b06601983614363565b9150613b11826149d0565b602082019050919050565b6000613b29600983614363565b9150613b34826149f9565b602082019050919050565b6000613b4c602c83614363565b9150613b5782614a22565b604082019050919050565b6000613b6f601083614363565b9150613b7a82614a71565b602082019050919050565b6000613b92603883614363565b9150613b9d82614a9a565b604082019050919050565b6000613bb5602a83614363565b9150613bc082614ae9565b604082019050919050565b6000613bd8602983614363565b9150613be382614b38565b604082019050919050565b6000613bfb600983614363565b9150613c0682614b87565b602082019050919050565b6000613c1e602083614363565b9150613c2982614bb0565b602082019050919050565b6000613c41602c83614363565b9150613c4c82614bd9565b604082019050919050565b6000613c64602083614363565b9150613c6f82614c28565b602082019050919050565b6000613c87602983614363565b9150613c9282614c51565b604082019050919050565b6000613caa602f83614363565b9150613cb582614ca0565b604082019050919050565b6000613ccd602183614363565b9150613cd882614cef565b604082019050919050565b6000613cf0600083614358565b9150613cfb82614d3e565b600082019050919050565b6000613d13601083614363565b9150613d1e82614d41565b602082019050919050565b6000613d36603183614363565b9150613d4182614d6a565b604082019050919050565b6000613d59602c83614363565b9150613d6482614db9565b604082019050919050565b6000613d7c603083614363565b9150613d8782614e08565b604082019050919050565b613d9b816144fe565b82525050565b613daa816144fe565b82525050565b6000613dbc828561398d565b9150613dc8828461398d565b91508190509392505050565b6000613ddf82613ce3565b9150819050919050565b6000602082019050613dfe6000830184613890565b92915050565b6000608082019050613e196000830187613890565b613e266020830186613890565b613e336040830185613da1565b8181036060830152613e45818461390c565b905095945050505050565b60006020820190508181036000830152613e6a818461389f565b905092915050565b6000602082019050613e8760008301846138fd565b92915050565b6000602082019050613ea26000830184613945565b92915050565b60006020820190508181036000830152613ec28184613954565b905092915050565b60006020820190508181036000830152613ee3816139be565b9050919050565b60006020820190508181036000830152613f03816139e1565b9050919050565b60006020820190508181036000830152613f2381613a04565b9050919050565b60006020820190508181036000830152613f4381613a27565b9050919050565b60006020820190508181036000830152613f6381613a4a565b9050919050565b60006020820190508181036000830152613f8381613a6d565b9050919050565b60006020820190508181036000830152613fa381613a90565b9050919050565b60006020820190508181036000830152613fc381613ab3565b9050919050565b60006020820190508181036000830152613fe381613ad6565b9050919050565b6000602082019050818103600083015261400381613af9565b9050919050565b6000602082019050818103600083015261402381613b1c565b9050919050565b6000602082019050818103600083015261404381613b3f565b9050919050565b6000602082019050818103600083015261406381613b62565b9050919050565b6000602082019050818103600083015261408381613b85565b9050919050565b600060208201905081810360008301526140a381613ba8565b9050919050565b600060208201905081810360008301526140c381613bcb565b9050919050565b600060208201905081810360008301526140e381613bee565b9050919050565b6000602082019050818103600083015261410381613c11565b9050919050565b6000602082019050818103600083015261412381613c34565b9050919050565b6000602082019050818103600083015261414381613c57565b9050919050565b6000602082019050818103600083015261416381613c7a565b9050919050565b6000602082019050818103600083015261418381613c9d565b9050919050565b600060208201905081810360008301526141a381613cc0565b9050919050565b600060208201905081810360008301526141c381613d06565b9050919050565b600060208201905081810360008301526141e381613d29565b9050919050565b6000602082019050818103600083015261420381613d4c565b9050919050565b6000602082019050818103600083015261422381613d6f565b9050919050565b600060208201905061423f6000830184613da1565b92915050565b600061424f614260565b905061425b82826145b2565b919050565b6000604051905090565b600067ffffffffffffffff82111561428557614284614748565b5b602082029050602081019050919050565b600067ffffffffffffffff8211156142b1576142b0614748565b5b6142ba82614790565b9050602081019050919050565b600067ffffffffffffffff8211156142e2576142e1614748565b5b6142eb82614790565b9050602081019050919050565b6000819050602082019050919050565b600081519050919050565b600081519050919050565b600081519050919050565b6000602082019050919050565b600082825260208201905092915050565b600082825260208201905092915050565b600081905092915050565b600082825260208201905092915050565b600081905092915050565b600061438a826144fe565b9150614395836144fe565b9250827fffffffffffffffffffffffffffffffffffffffffffffffffffffffffffffffff038211156143ca576143c961465d565b5b828201905092915050565b60006143e0826144fe565b91506143eb836144fe565b9250826143fb576143fa61468c565b5b828204905092915050565b6000614411826144fe565b915061441c836144fe565b9250817fffffffffffffffffffffffffffffffffffffffffffffffffffffffffffffffff04831182151516156144555761445461465d565b5b828202905092915050565b600061446b826144fe565b9150614476836144fe565b9250828210156144895761448861465d565b5b828203905092915050565b600061449f826144de565b9050919050565b60008115159050919050565b60007fffffffff0000000000000000000000000000000000000000000000000000000082169050919050565b600073ffffffffffffffffffffffffffffffffffffffff82169050919050565b6000819050919050565b60006145138261451a565b9050919050565b60006145258261452c565b9050919050565b6000614537826144de565b9050919050565b82818337600083830152505050565b60005b8381101561456b578082015181840152602081019050614550565b8381111561457a576000848401525b50505050565b6000600282049050600182168061459857607f821691505b602082108114156145ac576145ab6146bb565b5b50919050565b6145bb82614790565b810181811067ffffffffffffffff821117156145da576145d9614748565b5b80604052505050565b60006145ee826144fe565b91507fffffffffffffffffffffffffffffffffffffffffffffffffffffffffffffffff8214156146215761462061465d565b5b600182019050919050565b6000614637826144fe565b9150614642836144fe565b9250826146525761465161468c565b5b828206905092915050565b7f4e487b7100000000000000000000000000000000000000000000000000000000600052601160045260246000fd5b7f4e487b7100000000000000000000000000000000000000000000000000000000600052601260045260246000fd5b7f4e487b7100000000000000000000000000000000000000000000000000000000600052602260045260246000fd5b7f4e487b7100000000000000000000000000000000000000000000000000000000600052603160045260246000fd5b7f4e487b7100000000000000000000000000000000000000000000000000000000600052603260045260246000fd5b7f4e487b7100000000000000000000000000000000000000000000000000000000600052604160045260246000fd5b600080fd5b600080fd5b600080fd5b600080fd5b600080fd5b6000601f19601f8301169050919050565b7f4552433732315061757361626c653a20746f6b656e207472616e73666572207760008201527f68696c6520706175736564000000000000000000000000000000000000000000602082015250565b7f5061757361626c653a206e6f7420706175736564000000000000000000000000600082015250565b7f45786365656473206e756d626572000000000000000000000000000000000000600082015250565b7f455243373231456e756d657261626c653a206f776e657220696e646578206f7560008201527f74206f6620626f756e6473000000000000000000000000000000000000000000602082015250565b7f4552433732313a207472616e7366657220746f206e6f6e20455243373231526560008201527f63656976657220696d706c656d656e7465720000000000000000000000000000602082015250565b7f4f776e61626c653a206e6577206f776e657220697320746865207a65726f206160008201527f6464726573730000000000000000000000000000000000000000000000000000602082015250565b7f4552433732313a20746f6b656e20616c7265616479206d696e74656400000000600082015250565b7f426164206f776e65722100000000000000000000000000000000000000000000600082015250565b7f4552433732313a207472616e7366657220746f20746865207a65726f2061646460008201527f7265737300000000000000000000000000000000000000000000000000000000602082015250565b7f4552433732313a20617070726f766520746f2063616c6c657200000000000000600082015250565b7f4d6178206c696d69740000000000000000000000000000000000000000000000600082015250565b7f4552433732313a206f70657261746f7220717565727920666f72206e6f6e657860008201527f697374656e7420746f6b656e0000000000000000000000000000000000000000602082015250565b7f5061757361626c653a2070617573656400000000000000000000000000000000600082015250565b7f4552433732313a20617070726f76652063616c6c6572206973206e6f74206f7760008201527f6e6572206e6f7220617070726f76656420666f7220616c6c0000000000000000602082015250565b7f4552433732313a2062616c616e636520717565727920666f7220746865207a6560008201527f726f206164647265737300000000000000000000000000000000000000000000602082015250565b7f4552433732313a206f776e657220717565727920666f72206e6f6e657869737460008201527f656e7420746f6b656e0000000000000000000000000000000000000000000000602082015250565b7f436c61696d20656e640000000000000000000000000000000000000000000000600082015250565b7f4552433732313a206d696e7420746f20746865207a65726f2061646472657373600082015250565b7f4552433732313a20617070726f76656420717565727920666f72206e6f6e657860008201527f697374656e7420746f6b656e0000000000000000000000000000000000000000602082015250565b7f4f776e61626c653a2063616c6c6572206973206e6f7420746865206f776e6572600082015250565b7f4552433732313a207472616e73666572206f6620746f6b656e2074686174206960008201527f73206e6f74206f776e0000000000000000000000000000000000000000000000602082015250565b7f4552433732314d657461646174613a2055524920717565727920666f72206e6f60008201527f6e6578697374656e7420746f6b656e0000000000000000000000000000000000602082015250565b7f4552433732313a20617070726f76616c20746f2063757272656e74206f776e6560008201527f7200000000000000000000000000000000000000000000000000000000000000602082015250565b50565b7f5472616e73666572206661696c65642e00000000000000000000000000000000600082015250565b7f4552433732313a207472616e736665722063616c6c6572206973206e6f74206f60008201527f776e6572206e6f7220617070726f766564000000000000000000000000000000602082015250565b7f455243373231456e756d657261626c653a20676c6f62616c20696e646578206f60008201527f7574206f6620626f756e64730000000000000000000000000000000000000000602082015250565b7f4552433732314275726e61626c653a2063616c6c6572206973206e6f74206f7760008201527f6e6572206e6f7220617070726f76656400000000000000000000000000000000602082015250565b614e6081614494565b8114614e6b57600080fd5b50565b614e77816144a6565b8114614e8257600080fd5b50565b614e8e816144b2565b8114614e9957600080fd5b50565b614ea5816144fe565b8114614eb057600080fd5b5056fea2646970667358221220a424926e1b6d67fa14d49cf0abfb96563ee454c4233d27a533f6f4bc648c362464736f6c63430008070033",
    "immutableReferences": {},
    "source": "// SPDX-License-Identifier: MIT\r\npragma solidity ^0.8.0;\r\n\r\nimport \"@openzeppelin/contracts/token/ERC721/ERC721.sol\";\r\nimport \"@openzeppelin/contracts/token/ERC721/extensions/ERC721Enumerable.sol\";\r\nimport \"@openzeppelin/contracts/token/ERC721/extensions/ERC721Burnable.sol\";\r\nimport \"@openzeppelin/contracts/access/Ownable.sol\";\r\nimport \"@openzeppelin/contracts/utils/math/SafeMath.sol\";\r\nimport \"@openzeppelin/contracts/utils/Counters.sol\";\r\nimport \"./ERC721Pausable.sol\";\r\nimport \"./PudgyPenguinsInterface.sol\";\r\n\r\ncontract PudgyPresent is ERC721Enumerable, Ownable, ERC721Burnable, ERC721Pausable {\r\n    using SafeMath for uint256;\r\n    using Counters for Counters.Counter;\r\n\r\n    Counters.Counter private _tokenIdTracker;\r\n\r\n    uint256 public constant MAX_ELEMENTS = 8888;\r\n    uint256 public constant MAX_BY_MINT = 10;\r\n    uint256 public endClaim_timestamp = 1630958400; // Thu Sept 06 2021 20:00:00 UTC\r\n    mapping (uint256 => uint256) private _pudgyPenguinsUsed;\r\n\r\n    string public baseTokenURI;\r\n\r\n    event CreatePenguinPresent(uint256 indexed id);\r\n\r\n    PudgyPenguinsInterface public pudgyPenguins;\r\n    constructor(string memory baseURI) ERC721(\"PudgyPresent\", \"PP\") {\r\n        setBaseURI(baseURI);\r\n        pause(true);\r\n    }\r\n\r\n    modifier claimIsOpen {\r\n        require(block.timestamp <= endClaim_timestamp, \"Claim end\");\r\n        require(_totalSupply() <= MAX_ELEMENTS, \"Claim end\");\r\n        if (_msgSender() != owner()) {\r\n            require(!paused(), \"Pausable: paused\");\r\n        }\r\n        _;\r\n    }\r\n\r\n    function _totalSupply() internal view returns (uint) {\r\n        return _tokenIdTracker.current();\r\n    }\r\n\r\n    function totalMint() public view returns (uint256) {\r\n        return _totalSupply();\r\n    }\r\n\r\n    function mint(address _to, uint256[] memory _tokensId) public payable claimIsOpen {\r\n        uint256 total = _totalSupply();\r\n        require(total <= MAX_ELEMENTS, \"Claim end\");\r\n        require(total + _tokensId.length <= MAX_ELEMENTS, \"Max limit\");\r\n        require(_tokensId.length <= MAX_BY_MINT, \"Exceeds number\");\r\n\r\n        for (uint256 i = 0; i < _tokensId.length; i++) {\r\n            uint256  _tokenId = _tokensId[i];\r\n            require(canClaim(_tokenId) && pudgyPenguins.ownerOf(_tokenId) == _msgSender(), \"Bad owner!\");\r\n\r\n            _pudgyPenguinsUsed[_tokenId] = 1;\r\n            _mintAnElement(_to, _tokenId);\r\n\r\n        }\r\n    }\r\n\r\n    function canClaim(uint256 _tokenId) public view returns(bool) {\r\n        return _pudgyPenguinsUsed[_tokenId] == 0;\r\n    }\r\n\r\n    function _mintAnElement(address _to, uint256 id) private {\r\n        _tokenIdTracker.increment();\r\n        _safeMint(_to, id);\r\n        emit CreatePenguinPresent(id);\r\n    }\r\n\r\n    function _baseURI() internal view virtual override returns (string memory) {\r\n        return baseTokenURI;\r\n    }\r\n\r\n    function setBaseURI(string memory baseURI) public onlyOwner {\r\n        baseTokenURI = baseURI;\r\n    }\r\n\r\n    function walletOfOwner(address _owner) external view returns (uint256[] memory) {\r\n        uint256 tokenCount = balanceOf(_owner);\r\n\r\n        uint256[] memory tokensId = new uint256[](tokenCount);\r\n        for (uint256 i = 0; i < tokenCount; i++) {\r\n            tokensId[i] = tokenOfOwnerByIndex(_owner, i);\r\n        }\r\n\r\n        return tokensId;\r\n    }\r\n    function pause(bool val) public onlyOwner {\r\n        if (val == true) {\r\n            _pause();\r\n            return;\r\n        }\r\n        _unpause();\r\n    }\r\n    function _beforeTokenTransfer(\r\n        address from,\r\n        address to,\r\n        uint256 tokenId\r\n    ) internal virtual override(ERC721, ERC721Enumerable, ERC721Pausable) {\r\n        super._beforeTokenTransfer(from, to, tokenId);\r\n    }\r\n\r\n    function supportsInterface(bytes4 interfaceId) public view virtual override(ERC721, ERC721Enumerable) returns (bool) {\r\n        return super.supportsInterface(interfaceId);\r\n    }\r\n\r\n    function setEndClaimDate(uint256 _end) public onlyOwner{\r\n        endClaim_timestamp = _end;\r\n    }\r\n    function getEndClaimDate() public view returns(uint256){\r\n        return endClaim_timestamp;\r\n    }\r\n    function setPudgyPenguins(address _pudgyPenguins) external onlyOwner {\r\n        pudgyPenguins = PudgyPenguinsInterface(_pudgyPenguins);\r\n    }\r\n\r\n    address public constant creatorAddress = 0x6F84Fa72Ca4554E0eEFcB9032e5A4F1FB41b726C;\r\n    address public constant devAddress = 0xcBCc84766F2950CF867f42D766c43fB2D2Ba3256;\r\n    function withdrawAll() public payable onlyOwner {\r\n        uint256 balance = address(this).balance;\r\n        require(balance > 0);\r\n        _widthdraw(devAddress, balance.mul(35).div(100));\r\n        _widthdraw(creatorAddress, address(this).balance);\r\n    }\r\n\r\n    function _widthdraw(address _address, uint256 _amount) private {\r\n        (bool success, ) = _address.call{value: _amount}(\"\");\r\n        require(success, \"Transfer failed.\");\r\n    }\r\n}\r\n",
    "sourcePath": "/usr/src/app/contracts/PudgyPresent.sol",
    "compiler": {
        "name": "solc",
        "version": "0.8.7+commit.e28d00a7.Emscripten.clang"
    },
    "schemaVersion": "3.3.3",
    "updatedAt": "2021-08-30T07:41:49.591Z",
    "networkType": "ethereum",
    "devdoc": {
        "kind": "dev",
        "methods": {
            "approve(address,uint256)": {
                "details": "See {IERC721-approve}."
            },
            "balanceOf(address)": {
                "details": "See {IERC721-balanceOf}."
            },
            "burn(uint256)": {
                "details": "Burns `tokenId`. See {ERC721-_burn}. Requirements: - The caller must own `tokenId` or be an approved operator."
            },
            "getApproved(uint256)": {
                "details": "See {IERC721-getApproved}."
            },
            "isApprovedForAll(address,address)": {
                "details": "See {IERC721-isApprovedForAll}."
            },
            "name()": {
                "details": "See {IERC721Metadata-name}."
            },
            "owner()": {
                "details": "Returns the address of the current owner."
            },
            "ownerOf(uint256)": {
                "details": "See {IERC721-ownerOf}."
            },
            "paused()": {
                "details": "Returns true if the contract is paused, and false otherwise."
            },
            "renounceOwnership()": {
                "details": "Leaves the contract without owner. It will not be possible to call `onlyOwner` functions anymore. Can only be called by the current owner. NOTE: Renouncing ownership will leave the contract without an owner, thereby removing any functionality that is only available to the owner."
            },
            "safeTransferFrom(address,address,uint256)": {
                "details": "See {IERC721-safeTransferFrom}."
            },
            "safeTransferFrom(address,address,uint256,bytes)": {
                "details": "See {IERC721-safeTransferFrom}."
            },
            "setApprovalForAll(address,bool)": {
                "details": "See {IERC721-setApprovalForAll}."
            },
            "symbol()": {
                "details": "See {IERC721Metadata-symbol}."
            },
            "tokenByIndex(uint256)": {
                "details": "See {IERC721Enumerable-tokenByIndex}."
            },
            "tokenOfOwnerByIndex(address,uint256)": {
                "details": "See {IERC721Enumerable-tokenOfOwnerByIndex}."
            },
            "tokenURI(uint256)": {
                "details": "See {IERC721Metadata-tokenURI}."
            },
            "totalSupply()": {
                "details": "See {IERC721Enumerable-totalSupply}."
            },
            "transferFrom(address,address,uint256)": {
                "details": "See {IERC721-transferFrom}."
            },
            "transferOwnership(address)": {
                "details": "Transfers ownership of the contract to a new account (`newOwner`). Can only be called by the current owner."
            }
        },
        "version": 1
    },
    "userdoc": {
        "kind": "user",
        "methods": {},
        "version": 1
    }
}